:1000000000180020C1000000791100003D1100001F
:100010003D1100003D1100003D1100003D110000A8
:100020003D1100003D1100003D110000791100005C
:10003000791100003D11000015150000E5150000C4
:100040007911000079110000791100007911000088
:100050007911000079110000791100007911000078
:100060007911000079110000791100007911000068
:10007000B111000089120000611300007911000025
:100080007911000079110000791100007911000048
:100090007911000079110000791100007911000038
:1000A0003508000079110000791100007911000075
:1000B0007911000079110000791100007911000018
:1000C000F8B501F05DF80821474A484B1A60484AE4
:1000D000484B1A60484A494B1A60494B1A780A4201
:1000E00002D01A780A431A702A22464B46481A70E0
:1000F00000234649464C1A188A4203D2E558043375
:100100001560F8E70021434B434A934201D202C3F2
:10011000FBE70023414A424958589446985004331B
:10012000C02BF9D100210326FF2580248A083D4BEE
:100130009200D2180B002F003340DB009F40106864
:100140000131B84307002000984003003B4313608F
:100150002029EBD16246344B1A608A22334B1A7045
:10016000334B663A5A707C321A709E3A9979114232
:10017000FCD0102299791142FCD10C209A792C499B
:100180000240082AFAD1053A0A713D324A71203AF2
:1001900099791142FCD0402299791142FCD025492D
:1001A000254A11602021224A117014399A790A4097
:1001B0000C2AFBD1214A224B1A60224A224B1A6098
:1001C0000022224B1A60224B07321A60214A224B2E
:1001D0001A6062B600F02EFA01F0F8FA00F0D6FFCD
:1001E00000F00CFFFEE7C046300004F0348004400D
:1001F000823F0000388004400100000F3C80044032
:1002000002D0074000E007403002002078040020C0
:100210002C1A0000780400207407002000F9FF1F4A
:100220000000000000E400E008ED00E0005006409F
:10023000004006400000011044800440C000050555
:10024000048004407FBB000014E000E018E000E000
:1002500010E000E00000202020ED00E0FFFFFFFFA5
:10026000FFFFFFFFFFFFFFFFFFFFFFFFFFFFFFFF9E
:10027000FFFFFFFFFFFFFFFFFFFFFFFFFFFFFFFF8E
:10028000FFFFFFFFFFFFFFFFFFFFFFFFFFFFFFFF7E
:10029000FFFFFFFFFFFFFFFFFFFFFFFFFFFFFFFF6E
:1002A000FFFFFFFFFFFFFFFFFFFFFFFFFFFFFFFF5E
:1002B000FFFFFFFFFFFFFFFFFFFFFFFFFFFFFFFF4E
:1002C000FFFFFFFFFFFFFFFFFFFFFFFFFFFFFFFF3E
:1002D000FFFFFFFFFFFFFFFFFFFFFFFFFFFFFFFF2E
:1002E000FFFFFFFFFFFFFFFFFFFFFFFFFFFFFFFF1E
:1002F000FFFFFFFFFFFFFFFFFFFFFFFFFFFFFFFF0E
:10030000FFFFFFFFFFFFFFFFFFFFFFFFFFFFFFFFFD
:10031000FFFFFFFFFFFFFFFFFFFFFFFFFFFFFFFFED
:10032000FFFFFFFFFFFFFFFFFFFFFFFFFFFFFFFFDD
:10033000FFFFFFFFFFFFFFFFFFFFFFFFFFFFFFFFCD
:10034000FFFFFFFFFFFFFFFFFFFFFFFFFFFFFFFFBD
:10035000FFFFFFFFFFFFFFFFFFFFFFFFFFFFFFFFAD
:10036000FFFFFFFFFFFFFFFFFFFFFFFFFFFFFFFF9D
:10037000FFFFFFFFFFFFFFFFFFFFFFFFFFFFFFFF8D
:10038000FFFFFFFFFFFFFFFFFFFFFFFFFFFFFFFF7D
:10039000FFFFFFFFFFFFFFFFFFFFFFFFFFFFFFFF6D
:1003A000FFFFFFFFFFFFFFFFFFFFFFFFFFFFFFFF5D
:1003B000FFFFFFFFFFFFFFFFFFFFFFFFFFFFFFFF4D
:1003C000FFFFFFFFFFFFFFFFFFFFFFFFFFFFFFFF3D
:1003D000FFFFFFFFFFFFFFFFFFFFFFFFFFFFFFFF2D
:1003E000FFFFFFFFFFFFFFFFFFFFFFFFFFFFFFFF1D
:1003F000FFFFFFFFFFFFFFFFFFFFFFFFFFFFFFFF0D
:10040000FFFFFFFFFFFFFFFFFFFFFFFFDEF9FFFF23
:1004100010B5064C2378002B07D1054B002B02D0DA
:10042000044800E000BF0123237010BD78040020C1
:10043000000000002C1A0000084B10B5002B03D060
:100440000749084800E000BF07480368002B00D1B7
:1004500010BD064B002BFBD09847F9E700000000C9
:100460007C0400202C1A000078040020000000000A
:1004700010B501210D2000F069F8202200210D4B5C
:1004800008001A6000F062F80021012000F05EF818
:100490000121022000F05AF801220324064B1A60C1
:1004A000200001340221E4B200F050F80B2CF7D107
:1004B00010BDC046840000F8C80000F88022F0B5E6
:1004C0001E4C5202802321681C485B021142F9D065
:1004D00002681A40FCD11500194C2368197C237A54
:1004E0000C3419404B424B4193402B435BB20132D9
:1004F000DDB2082AF1D172B600210124114E124F4B
:1005000080250268AD022A42FAD080250268AD0239
:100510002A42FAD122008A401A4052B2002A01D05F
:100520003C6000E0346001310829E9D15023013BEF
:10053000FDD10122034B1A6062B6F0BD500000F8F5
:100540003C180000C80000F8C40000F8F0B51A28F4
:100550002FD80C2217004743164CE5196B6826006C
:10056000012901D0042911D1504334583018257D78
:10057000027A20202A432275A22252001A601A68A9
:10058000042901D1024313E0824311E038592C7A47
:10059000027DA24302758022002908D0022902D1DF
:1005A0000422FF3204E00022032901D181225200FB
:1005B0001A60F0BD1818000072B60C4B1A680C4B8C
:1005C00018680C4B1B6862B65B0104D5322393425A
:1005D0009B415B42C018084B9A1A084B5A43FA23B6
:1005E0009B005843920D10187047C04618E000E079
:1005F0009404002004ED00E07FBB0000555501008D
:1006000070B50400FFF7D8FF0500002C0FD0FFF7EE
:10061000D3FF074B401B984206D9013C002C06D063
:10062000FA239B00ED18F2E700F0F0FCEFE770BD55
:10063000E703000080221E4BD20510B51A6080220D
:10064000002012061A601B4B1B4918601B4B1C4AEA
:100650001960282313601B4A1B4C13601B4A13604C
:100660001B4A13601B4A13601B4A13600922226055
:100670001A4C20601A4C21601A4C23601A4C2360DB
:100680001A4C22601A4C20601A4801601A490B600B
:100690001A490B601A4B1A6000F008FD1920FFF789
:1006A000AFFF00F0D9FB1420FF30FFF7A9FF10BD0A
:1006B00000E100E004800340FFBF00000880034029
:1006C0000C80034014800340008003401C800340E2
:1006D000248003402C800340348003400490034076
:1006E000089003400C900340149003400090034096
:1006F00004A0034008A003400CA0034014A0034042
:1007000000A003400223F0B50A4A0B4E1478C82714
:100710002343DB00F518686008480578002D00D1F8
:10072000403F09040F43F75001235D405C400570D2
:100730001470F0BD1C05002000F8FF1FAC05002060
:10074000F8B572B60123174A082594461E001649CB
:1007500064465A1EA25C2A421AD05F017C589A0055
:10076000002C05D1CB1908305860104BCB5109E053
:100770003243D2005458002C0AD18B1808305860EC
:100780000B4B8B500B4A1378013B137062B608E099
:100790000133082BDCD162B60022064B1A7000F040
:1007A000D1FBF8BD5C19000000F8FF1F8800400075
:1007B000C8004000A2050020421E10B5062A30D80D
:1007C000022380001843174BC0001B1872B6164C4A
:1007D000A05C03280BD800F03BFF1604020705209D
:1007E00012E0083302200FE0083304200CE00F4829
:1007F000920014580E4B002C01D1115001E0985872
:10080000416099500CE00320A0540A0008325A605D
:10081000C822180700D4403A098809040A431A601C
:1008200062B610BD00F8FF1FB8040020600500206C
:100830007C050020F7B5BB4B1C781D000423E4B2F7
:100840001C421DD0B84B1B78002B16D0B74A13782A
:10085000DBB2002B05D0013BDBB21370002B00D1C3
:1008600000BEB34A1378DBB2002B06D0013BDBB2EB
:100870001370002B01D100F09DFB0422A94B1A70CC
:100880000822224000D177E2AA4BAB4F1B78DBB2A3
:100890009C08E4001D093C19002D00D0FDE12368EF
:1008A00065689806000F01380C2800D9F1E100F0C6
:1008B000D9FEA401A401F001F001F001F001F00162
:1008C000F001CD01F001F001F0010D006B689B4ECD
:1008D0009B49736000230B6001219A482A682060BD
:1008E000994C32602170994C92B23B61BB6101908E
:1008F000A2421BD8D020C000824200D3F0E0812069
:100900004000824200D1CDE006D8802A00D1B2E07A
:10091000822A00D1B4E000E18D4B9A4200D1D0E0B0
:10092000FF33FF339A4200D13EE1F6E0894882422C
:1009300000D139E111D890231B019A421AD0864B7D
:100940009A4200D156E1A13B9A4200D0E5E0764BB5
:10095000824C1B7823700B0028E181498A4200D128
:10096000D3E0804B9A4200D11EE17F4B9A4200D0E7
:10097000D3E03FE13C00B2786B4B7D1C1A70203411
:10098000FF3580222368134203D06068083800F0E6
:10099000D9FA0834AC42F4D100242500734BE05856
:1009A000002805D04368009300F0CCFA0098F7E7E0
:1009B0006E4B18516E4BE0506E4BE058002805D03E
:1009C0004368009300F0BEFA0098F7E7694B6A4A63
:1009D00018516A4BE0506B00D052694BE85C02380A
:1009E000032807D800F034FE02040204002200E0CD
:1009F00001225A5501350434072DCFD1002301249B
:100A0000604D2B70604B6149621EE3188A5C9B004D
:100A10001A7008231A4220D000F076FA63010028E9
:100A200005D0FA1808305060594AFA5003E0F850DF
:100A30002B7801332B7000F067FA0122A3001343D7
:100A4000DB00002805D0FA1808305060019AFA50EF
:100A500003E0F8502B789B182B7002210023A20092
:100A60001143C9007B5003210A438A400134BB5023
:100A7000082CC7D199E0394C23706370022395E0AC
:100A80007F22B0880240072A47D8344C9200237056
:100A90006370404BD218022312781A4200D185E0CD
:100AA000217083E07F23B2881A40072A35D87388E3
:100AB000002B32D10220374992005218117881431D
:100AC00029E07F23B2881A40072A26D87388002B92
:100AD00023D102202F4992005218117801431AE0C5
:100AE0007288B1882C4B5C68002C16D01888904214
:100AF00009D15888884206D1120A032A01D12378E5
:100B000054E01B8952E00C33EDE7244A1168244A73
:100B10001160B178234A117047E00F221D4B1A7003
:100B200068E0C04680200740AB0500201D0500207E
:100B3000AE0500209020074000F8FF1F9805002018
:100B400098040020C8004000AC0500208106000089
:100B500002030000210A000021090000A305002073
:100B60002122000021230000212000000005002098
:100B70009C04002060050020580700207C05002010
:100B8000B8040020A205002030C801105C19000044
:100B900088004000C0200740641900009404002031
:100BA00070070020B805002000231C00F5889D4236
:100BB00000D91D002E00402D00D940262000310014
:100BC000FFF7A0FDA419AD1B03D12F00402E04D0C8
:100BD00010E04027AF4200D92F0020003900FFF776
:100BE00091FDE419ED1B01D1402F03D17E4B1C6018
:100BF0007E4B1D8001227E4B4AE07E4E7E4B32882A
:100C00009A4211D100237D4AE95CD1540133072B6C
:100C1000FAD113680735862B02D10F22784B1A7050
:100C200000210800FFF76EFD764B32689A420AD128
:100C3000754B72689A4206D100212A78734B0800DE
:100C40001A70FFF75FFD724B236022E0664F3E682B
:100C5000002E13D0654B1C882500402C00D9402560
:100C600029003000FFF74EFD641B604BA4B21C80CE
:100C7000002C01D1402D00D174193C60A0225D4BA5
:100C8000D2001988914204D100225A709A78614B9F
:100C90001A700122564B1A706AE008226068013D02
:100CA0000838EDB2134037D000F04CF95A49A8008B
:100CB00042585A4B002A1CD0566846501100585DC5
:100CC0000831616003280BD800F0C2FC020406085A
:100CD000032104E0022102E0052100E0042159552E
:100CE0000821C8230C4200D1403B12881204134350
:100CF0003DE0585D032808D800F0AAFC3A3A020407
:100D0000002200E001225A5532E008221440621EFF
:100D1000944102345C552BE02268110C8AB20280A7
:100D200000291ED03E4943804360AB005F583D4ED2
:100D3000002F01D1585001E0F15848603A496D0048
:100D4000F0506B5AD2186A5200F0DEF8002802D038
:100D50000830606005E0354A206013780133137075
:100D600006E008231C4201D1314B00E0284B2360F0
:100D70000822304B1A705EE5012004421ED0022387
:100D80001B492B4C0B702C4B2C4E1A702C4B1C609F
:100D90009C602C4C1A61DC600D249A615E602A4BC9
:100DA0001C70FF23294C23701A4C2B702270284A88
:100DB00013709F22274B1A70087013E063B2002B48
:100DC00004DA0D22204B1A7080232B700222144269
:100DD00004D01E490B78DBB20B702A7010231C4222
:100DE00000D02B70F7BDC04698040020A00500205D
:100DF000942007409805002021200000680700206B
:100E00001D0500202109000202000100AD0500209F
:100E1000C80040009820074060050020B80400206A
:100E2000000500209C04002058070020A205002097
:100E300088004000802007401C050020C0040020DE
:100E400000F8FF1F20050020C02007408820074031
:100E50008C2007408420074010B500F0F3FA0022F0
:100E600011001B4BD150981808324160E82AF9D183
:100E700080201849C0020A6802430A601A0A16490B
:100E8000D2B20A701A0C1549D2B20A70144A1B0E5B
:100E90001370FF23134A00201370134A1349137071
:100EA000134A137001220A701249087012490A701D
:100EB000124A116899430B0070210B431360802282
:100EC0000F4B52041A6010220E4B1A7010BDC04610
:100ED00000F8FF1F348004409C200740B0200740EA
:100EE000B420074080200740882007409420074016
:100EF00010200740002107408420074018E400E04C
:100F000000E100E00821074070B572B60B4D2C6877
:100F1000200000F03DFC1D2802DD62B600200CE040
:100F200080231B06C3409C432C6062B64823584371
:100F3000034B181800230360436070BD300200208B
:100F4000C0F9FF1F10B504000E484821201A00F018
:100F500093FB1D2814D80C4B1B78002B07D00B4B90
:100F60001B78002B03D02000FFF7EAFB08E072B6E5
:100F700080231B06C340064A11680B43136062B608
:100F800010BDC046C0F9FF1FA2050020AB05002020
:100F900030020020054B9888054B1A68002A03D0C0
:100FA000138852889B1AC0187047C0465807002003
:100FB000B405002070B50E4B1C78E4B2002C15D19E
:100FC0000C4D2968002906D04B8804200B80FFF7C0
:100FD000F3FB2C600AE0FFF797FF011E03D004200B
:100FE000FFF7EAFB02E00122034B1A7070BDC04616
:100FF000AF050020B0050020AE05002010B5FFF7BA
:1010000037FAFFF75BFA00F001F8FAE770B5234C06
:101010002378002B40D101332370FFF7BBFF00285A
:1010200001D000F0ECFA00F0B3F8002801D000F095
:10103000E3FA00F019F9002801D000F0DEFA00F020
:101040007FF9002801D000F0D9FA00232370EFF3D4
:101050000583002B20D1EFF3108272B6104D286863
:10106000002803D00F4C2178002903D0002A13D187
:1010700062B611E00123237043692B60002B01D07D
:10108000996101E008490B60002A00D162B6002591
:10109000836845779847257070BDC046B905002024
:1010A0004C07002050070020480700201B4B1C4A1B
:1010B00019781C4B082901D1002102E00A2903D12B
:1010C0002E311160132206E00C2901D1283100E0F5
:1010D0003C21116012221A60134B1A78134B002A1C
:1010E00001D0002200E001221A60114B1A78114B46
:1010F000012A01D880220CE0042A01D8842208E0C9
:10110000082A01D8852204E0102A01D8862200E0AE
:1011100087221A600122084B1A707047340200209F
:1011200008B003400CB00340BB05002020B00340D2
:101130003502002024B00340BA05002070B5802598
:101140008026ED02F6000B4C23682B4201D0FFF7FE
:1011500071FB2368334201D000F02AF823681B0595
:1011600001D500F091F82368DB04ECD500F0F8F825
:10117000E9E7C0463480044010B5FFF7DFFFFFFF0A
:101180000022014B1A607047008104407047FFFF46
:10119000054B1878054BC0B21A78D3B2984200D2EA
:1011A0004030C01A7047C0463F060020BD050020F1
:1011B00030B5234A13799B0611D5224BD479187880
:1011C00019000130E4B200233F2800DC03001E4870
:1011D0000078834203D01D48C454DBB20B70D17831
:1011E0001748C9B24BB2002B17DA03795BB2002B58
:1011F00013DA174B174C1D782378DBB29D4202D1CE
:101200006C23C37009E001333F2B00D9002312483F
:10121000C05CDBB2C0B2D0712370402319420ED043
:10122000117919420BD000210C4B19700C4B1B6823
:101230008B4202D00B49097819722C23D37030BD30
:1012400000A006403F060020BD050020FE0500204E
:101250004806002040060020BE050020BC050020F6
:10126000440600203E060020054B1878054BC0B20E
:101270001A78D3B2984200D24030C01A7047C046A4
:10128000B40600204A06002030B5234A13799B0695
:1012900011D5224BD479187819000130E4B200231B
:1012A0003F2800DC03001E480078834203D01D481D
:1012B000C454DBB20B70D1781748C9B24BB2002BC3
:1012C00017DA03795BB2002B13DA174B174C1D7832
:1012D0002378DBB29D4202D16C23C37009E0013355
:1012E000272B00D900231248C05CDBB2C0B2D071FA
:1012F0002370402319420ED0117919420BD00021DE
:101300000C4B19700C4B1B688B4202D00B490978AF
:1013100019722C23D37030BD00B00640B4060020F3
:101320004A06002073060020BC060020B5060020F7
:101330004B06002049060020B8060020B306002016
:10134000054B1878054BC0B21A78D3B2984200D238
:101350004030C01A7047C04630070020C506002044
:1013600030B52C4A13799B0623D52B4BD4791878AA
:1013700019000130E4B200233F2800DC03002748B5
:101380000078834203D02648C454D8B20870254957
:10139000086800280DD024490978C9B28B4201D3CE
:1013A0005B1A01E05B1A4033272B02DD1F4B1B78D1
:1013B0000371D1781748C9B24BB2002B17DA037901
:1013C0005BB2002B13DA1A4B174C1D782378DBB273
:1013D0009D4202D16C23C37009E00133272B00D951
:1013E00000231448C05CDBB2C0B2D071237040232C
:1013F00019420ED0117919420BD000210E4B1970F1
:101400000E4B1B688B4202D00D49097819722C23B0
:10141000D37030BD00C0064030070020C506002054
:10142000EF060020C006002031070020EE06002055
:1014300038070020C6060020C4060020340700201C
:101440002F07002030B585B072B670224121154BB0
:101450001A70154A1170154A3239117080221A70AB
:101460001A7852B2002AFBDA114B186862B6114B97
:10147000984201D80A23584301AC0A22210000F007
:10148000BFF800230C48E15C0500002905D05A0094
:101490008218013351800A2BF5D101335B002B7088
:1014A00005B030BD000002400700024006000240C7
:1014B000080002407F96980062040020EFF310803D
:1014C00072B643425841C0B27047002800D062B69D
:1014D0007047FFFF10B5FFF7F1FF0C4A1468002CAE
:1014E00010D063691360002B02D000229A6101E0E2
:1014F000074A1360FFF7E9FF002320006377A36822
:101500009847E8E7FFF7E1FF10BDC0463C07002021
:101510004007002010B5FFF7DDFF10BD164930B5BC
:101520000B68002B02D18360C36009E004681A686D
:10153000944207D20025121B8360C560D8601A60F0
:10154000086016E002681C689968121B0260002996
:101550000CD00C680B00A242F4D28160C968A21AB8
:10156000C160D860C16888601A6002E08160C360B1
:1015700098600223037530BD4407002070B5174DF5
:101580002C68002C19D02368002B02D0013B23606B
:1015900013E0A268002A00D0D360002120692A60ED
:1015A000036821751B68220098476368002BE7D009
:1015B00023602000FFF7B2FFE2E7FFF77FFF002282
:1015C000074B1C681A60FFF780FF002C05D0A56848
:1015D0002000FFF7A3FF2C00F7E770BD44070020B1
:1015E0005407002010B5034A136801331360FFF756
:1015F000C5FF10BD940400207047704770477047C6
:10160000F8B506000D00170000243900300000F086
:10161000B9F80B003733DBB2092901D83031CBB22E
:1016200030002B55390000F027F8061E01D0013498
:10163000EBE72B1958702B005A1B944206DD1A78E1
:10164000295D19702A550133013CF5E72800F8BDE2
:1016500002B4714649084900095C49008E4402BC45
:101660007047C04603B47146490840004900095A12
:1016700049008E4403BC7047002243088B4274D358
:1016800003098B425FD3030A8B4244D3030B8B4283
:1016900028D3030C8B420DD3FF22090212BA030C8C
:1016A0008B4202D31212090265D0030B8B4219D36D
:1016B00000E0090AC30B8B4201D3CB03C01A52418D
:1016C000830B8B4201D38B03C01A5241430B8B42D5
:1016D00001D34B03C01A5241030B8B4201D30B03BE
:1016E000C01A5241C30A8B4201D3CB02C01A5241E5
:1016F000830A8B4201D38B02C01A5241430A8B42A8
:1017000001D34B02C01A5241030A8B4201D30B0290
:10171000C01A5241CDD2C3098B4201D3CB01C01AAA
:10172000524183098B4201D38B01C01A52414309B4
:101730008B4201D34B01C01A524103098B4201D3A2
:101740000B01C01A5241C3088B4201D3CB00C01A0F
:10175000524183088B4201D38B00C01A5241430887
:101760008B4201D34B00C01A5241411A00D20146AC
:10177000524110467047FFE701B5002000F006F81F
:1017800002BDC0460029F7D076E770477047C046D3
:101790001C2101231B04984201D3000C10391B0AA1
:1017A000984201D3000A08391B09984201D3000965
:1017B000043902A2105C40187047C04604030202BC
:1017C0000101010100000000000000000E4B70B597
:1017D00000251E000D4CE41AA410A54204D0AB0055
:1017E000F35898470135F8E700F016F9084B002543
:1017F0001E00084CE41AA410A54204D0AB00F35814
:1018000098470135F8E770BD241A0000241A00003B
:10181000241A0000281A0000420000F840A00440EA
:1018200001000000420000F844A004400200000053
:10183000C00000F800C0044001000000000000F8F3
:101840000490044002000000000000F808900440EA
:1018500004000000C00000F81CC00440800000002C
:10186000C00000F810C0044010000000C00000F8E4
:1018700008C0044004000000C00000F80CC0044090
:1018800008000000800000F80CB0044008000000D0
:10189000800000F810B0044010000000800000F844
:1018A00018B0044040000000800000F81CB0044064
:1018B00080000000800000F814B004402000000008
:1018C000C00000F804C0044002000000800000F8DE
:1018D00000B0044001000000400000F800A00440F7
:1018E00001000000400000F804A0044002000000D5
:1018F000400000F80CA0044008000000400000F880
:1019000008A0044004000000C00000F814C0044017
:1019100020000000C00000F818C004404000000093
:10192000800000F804B0044002000000800000F8CD
:1019300008B0044004000000020100F850D0044048
:1019400010000000020100F854D004402000000004
:10195000030100F878D00440400000001515191567
:10196000151515FF000100008A020020120000007A
:1019700000020000B4020020AF00000000220200BC
:10198000630300203F000000002102000803002044
:10199000090000000022030036020020540000006D
:1019A00000210300210300200900000000220400A0
:1019B000A203002055000000002104003A0300208B
:1019C0000900000000220500F703002028000000A5
:1019D000002105005303002009000000000300005F
:1019E0005E04002000000000010309049C020020A6
:1019F0000000000002030904200400200000000091
:101A0000030309046204002000000000000000003D
:101A10000000000000000000F8B5C046F8BC08BC9B
:081A20009E46704739040000E6
:041A2800F8B5C04607
:101A2C00FFFFFFFF0A0405010902A1018501050959
:101A3C001901290815002501950875018102050178
:101A4C000930093109381581257F75089503810600
:101A5C00050C0A38021581257F750895018106C091
:101A6C0005010902A10185020501093009311500A2
:101A7C0026FF7F751095028102C012011001EF0242
:101A8C000140C016870473020102030118035400BD
:101A9C00650065006E0073007900640075006900D4
:101AAC006E006F000902AF00060100C032080B0087
:101ABC0002020201040904000001020201000524D3
:101ACC00001001052401010104240206052406006E
:101ADC00010705820310004009040100020A0000FE
:101AEC0000070503024000000705840240000009BE
:101AFC000402000103010100092111010001223F30
:101B0C00000705810308000109040300010300001C
:101B1C00000921110100012254000705850308006A
:101B2C000209040400010300000009211101000155
:101B3C00225500070586030C00010904050001036A
:101B4C00000000092111010001222800070587036C
:101B5C0008000405010906A101750195080507197E
:101B6C00E029E7150025018102950175088103958F
:101B7C000575010508190129059102950175039157
:101B8C0003950675081500257F05071900297F8127
:101B9C0000C005010904A10115002501750195205E
:101BAC000509190129208102150025073500463B3E
:101BBC000175049501651405010939814205010976
:101BCC0001A100150026FF03750A9504093009319F
:101BDC00093209358102C0150026FF03750A9502EA
:101BEC00093609368102C0050C0901A101750A9557
:101BFC000419002A9C021500269C0281000501751F
:101C0C00089503190029B7150026B7008100C000FC
:101C1C003E03530065007200690061006C002F00E8
:101C2C004B006500790062006F0061007200640077
:101C3C002F004D006F007500730065002F004A00E7
:101C4C006F00790073007400690063006B0004037B
:101C5C0009040C030000000000000000000000005C
:081C6C00000000000000000070
:00000001FF
