:1000000000180020C1000000B5160000791600009D
:1000100079160000791600007916000079160000A4
:10002000791600007916000079160000B516000058
:10003000B516000079160000A11A0000711B00001F
:10004000B5160000B5160000B5160000B516000084
:10005000B5160000B5160000B5160000B516000074
:10006000B5160000B5160000B5160000B516000064
:100070003D17000015180000ED180000B51600002F
:10008000B5160000B5160000B5160000B516000044
:10009000B5160000B5160000B5160000B516000034
:1000A000D9090000B5160000B5160000B51600000D
:1000B000B5160000B5160000B5160000B516000014
:1000C000F8B501F0FBFA0821474A484B1A60484A44
:1000D000484B1A60484A494B1A60494B1A780A4201
:1000E00002D01A780A431A702A22464B46481A70E0
:1000F00000234649464C1A188A4203D2E558043375
:100100001560F8E70021434B434A934201D202C3F2
:10011000FBE70023414A424958589446985004331B
:10012000C02BF9D100210326FF2580248A083D4BEE
:100130009200D2180B002F003340DB009F40106864
:100140000131B84307002000984003003B4313608F
:100150002029EBD16246344B1A608A22334B1A7045
:10016000334B663A5A707C321A709E3A9979114232
:10017000FCD0102299791142FCD10C209A792C499B
:100180000240082AFAD1053A0A713D324A71203AF2
:1001900099791142FCD0402299791142FCD025492D
:1001A000254A11602021224A117014399A790A4097
:1001B0000C2AFBD1214A224B1A60224A224B1A6098
:1001C0000022224B1A60224B07321A60214A224B2E
:1001D0001A6062B600F0D4FA02F0FAFA01F074FA8A
:1001E00001F046F9FEE7C046300004F034800440D8
:1001F000823F0000388004400100000F3C80044032
:1002000002D0074000E007403002002088040020B0
:10021000B02A0000880400209807002000F9FF1F82
:100220000000000000E400E008ED00E0005006409F
:10023000004006400000011044800440C000050555
:10024000048004407FBB000014E000E018E000E000
:1002500010E000E00000202020ED00E0FFFFFFFFA5
:10026000FFFFFFFFFFFFFFFFFFFFFFFFFFFFFFFF9E
:10027000FFFFFFFFFFFFFFFFFFFFFFFFFFFFFFFF8E
:10028000FFFFFFFFFFFFFFFFFFFFFFFFFFFFFFFF7E
:10029000FFFFFFFFFFFFFFFFFFFFFFFFFFFFFFFF6E
:1002A000FFFFFFFFFFFFFFFFFFFFFFFFFFFFFFFF5E
:1002B000FFFFFFFFFFFFFFFFFFFFFFFFFFFFFFFF4E
:1002C000FFFFFFFFFFFFFFFFFFFFFFFFFFFFFFFF3E
:1002D000FFFFFFFFFFFFFFFFFFFFFFFFFFFFFFFF2E
:1002E000FFFFFFFFFFFFFFFFFFFFFFFFFFFFFFFF1E
:1002F000FFFFFFFFFFFFFFFFFFFFFFFFFFFFFFFF0E
:10030000FFFFFFFFFFFFFFFFFFFFFFFFFFFFFFFFFD
:10031000FFFFFFFFFFFFFFFFFFFFFFFFFFFFFFFFED
:10032000FFFFFFFFFFFFFFFFFFFFFFFFFFFFFFFFDD
:10033000FFFFFFFFFFFFFFFFFFFFFFFFFFFFFFFFCD
:10034000FFFFFFFFFFFFFFFFFFFFFFFFFFFFFFFFBD
:10035000FFFFFFFFFFFFFFFFFFFFFFFFFFFFFFFFAD
:10036000FFFFFFFFFFFFFFFFFFFFFFFFFFFFFFFF9D
:10037000FFFFFFFFFFFFFFFFFFFFFFFFFFFFFFFF8D
:10038000FFFFFFFFFFFFFFFFFFFFFFFFFFFFFFFF7D
:10039000FFFFFFFFFFFFFFFFFFFFFFFFFFFFFFFF6D
:1003A000FFFFFFFFFFFFFFFFFFFFFFFFFFFFFFFF5D
:1003B000FFFFFFFFFFFFFFFFFFFFFFFFFFFFFFFF4D
:1003C000FFFFFFFFFFFFFFFFFFFFFFFFFFFFFFFF3D
:1003D000FFFFFFFFFFFFFFFFFFFFFFFFFFFFFFFF2D
:1003E000FFFFFFFFFFFFFFFFFFFFFFFFFFFFFFFF1D
:1003F000FFFFFFFFFFFFFFFFFFFFFFFFFFFFFFFF0D
:10040000FFFFFFFFFFFFFFFFFFFFFFFFDEF9FFFF23
:1004100010B5064C2378002B07D1054B002B02D0DA
:10042000044800E000BF0123237010BD88040020B1
:1004300000000000B02A0000084B10B5002B03D0CC
:100440000749084800E000BF07480368002B00D1B7
:1004500010BD064B002BFBD09847F9E700000000C9
:100460008C040020B02A0000880400200000000056
:1004700010B50F2300281CDB0023162819DD0133DB
:10048000432816DD0133702813DD01339D2810DD6C
:100490000133CA280DDD0133F4280ADD922201332D
:1004A0005200904205DD5222FF320023904200DCD0
:1004B00007330F2205494868904303434B60044BC0
:1004C0001B78002B01D100F0F1FD10BD800700204A
:1004D000D1050020002270B5802410005021012594
:1004E0000A4EA40234600B00013BFDD1084B1C6096
:1004F0000B00013BFDD1074B1B682B4093400132A1
:100500001843C0B2082AEDD170BDC046440000F8BF
:10051000480000F8D00000F810B501210D2000F0CF
:10052000BBF820220C4B01211A60002000F0B4F827
:1005300080230121094C5B022360080000F0ACF825
:1005400080239B0223600021022000F0A5F80122F5
:10055000034B1A7010BDC046840000F8480000F834
:10056000D1050020F7B572B68022444B52021A60C2
:10057000502319000139FDD141490A60013BFDD1E9
:10058000FFF7A8FF3F4C010000220600200000F00A
:1005900089FF200000F074FF62B60A2000F0D6F850
:1005A0000024012531002A002141374BA240294275
:1005B00002D019680A4302E0196891430A001A60E0
:1005C000324B1B78002B08D00134042CEAD10023D5
:1005D0000025009301932C000FE000F067FDF3E786
:1005E000944207D8280002F0ABF86B46A70001340C
:1005F000D851E4B20135042D07D032002B1D1A4129
:10060000130001221342F5D0EAE7012C04D0002C9C
:100610002CD0022C03D029E01D49009821E0019E36
:10062000009C301C211C01F0E3FEFE218905051C05
:1006300001F058FB002809D0211C301C01F09EFB62
:10064000FC21890501F0C0FD11490AE01149281C6F
:1006500001F048FB002802D03C20FF3008E00C49A4
:10066000201C01F0B1FD02F049F801E001204042F8
:10067000FFF7FEFE00F01AFDF7BDC046440000F88B
:10068000480000F83402002080070020D105002037
:100690000000B44200004040F0B51A282FD80C22C8
:1006A00017004743164CE5196B682600012901D055
:1006B000042911D1504334583018257D027A202066
:1006C0002A432275A22252001A601A68042901D115
:1006D000024313E0824311E038592C7A027DA24391
:1006E00002758022002908D0022902D10422FF329B
:1006F00004E00022032901D1812252001A60F0BDDA
:100700003028000072B60C4B1A680C4B18680C4B62
:100710001B6862B65B0104D5322393429B415B4266
:10072000C018084B9A1A084B5A43FA239B005843A7
:10073000920D10187047C04618E000E0A404002095
:1007400004ED00E07FBB00005555010070B50400CA
:10075000FFF7D8FF0500002C0FD0FFF7D3FF074BA2
:10076000401B984206D9013C002C06D0FA239B007E
:10077000ED18F2E700F0E8FEEFE770BDE7030000D8
:1007800080221E4BD20510B51A608022002012066E
:100790001A601B4B1B4918601B4B1C4A196028230D
:1007A00013601B4A1B4C13601B4A13601B4A1360E7
:1007B0001B4A13601B4A1360092222601A4C2060F6
:1007C0001A4C21601A4C23601A4C23601A4C226088
:1007D0001A4C20601A4801601A490B601A490B60D4
:1007E0001A4B1A6000F000FF1920FFF7AFFF00F06E
:1007F00005FC1420FF30FFF7A9FF10BD00E100E069
:1008000004800340FFBF0000088003400C800340C9
:1008100014800340008003401C8003402480034078
:100820002C80034034800340049003400890034030
:100830000C900340149003400090034004A0034038
:1008400008A003400CA0034014A0034000A00340F4
:100850000223F0B50A4A0B4E1478C8272343DB0065
:10086000F518686008480578002D00D1403F09045C
:100870000F43F75001235D405C4005701470F0BDDC
:100880002C05002000F8FF1FBC050020431E10B5FA
:100890000020062B0ED872B6074A99008858002807
:1008A00007D044685B008C50044904885A5A121BD4
:1008B0005A5262B610BDC0461005002070070020D5
:1008C000431E0020062B09D872B6054A9B009B5890
:1008D000002B02D001305B68FAE762B67047C04671
:1008E00070050020F8B572B60123174A0825944612
:1008F0001E00164964465A1EA25C2A421AD05F01A5
:100900007C589A00002C05D1CB1908305860104B48
:10091000CB5109E03243D2005458002C0AD18B1835
:10092000083058600B4B8B500B4A1378013B137007
:1009300062B608E00133082BDCD162B60022064B18
:100940001A7000F009FCF8BDA029000000F8FF1F94
:1009500088004000C8004000B2050020421E10B5CB
:10096000062A30D8022380001843174BC0001B18FA
:1009700072B6164CA05C03280BD801F007F91604D8
:100980000207052012E0083302200FE0083304209C
:100990000CE00F48920014580E4B002C01D111505E
:1009A00001E09858416099500CE00320A0540A00DF
:1009B00008325A60C822180700D4403A098809044E
:1009C0000A431A6062B610BD00F8FF1FC804002079
:1009D000700500208C050020F7B5BB4B1C781D006E
:1009E0000423E4B21C421DD0B84B1B78002B16D058
:1009F000B74A1378DBB2002B05D0013BDBB2137092
:100A0000002B00D100BEB34A1378DBB2002B06D016
:100A1000013BDBB21370002B01D100F005FD042275
:100A2000A94B1A700822224000D177E2AA4BAB4FA3
:100A30001B78DBB29C08E4001D093C19002D00D096
:100A4000FDE1236865689806000F01380C2800D97D
:100A5000F1E101F0A5F8A401A401F001F001F00119
:100A6000F001F001F001CD01F001F001F0010D0005
:100A70006B689B4E9B49736000230B6001219A4871
:100A80002A682060994C32602170994C92B23B6187
:100A9000BB610190A2421BD8D020C000824200D38B
:100AA000F0E081204000824200D1CDE006D8802ACB
:100AB00000D1B2E0822A00D1B4E000E18D4B9A422D
:100AC00000D1D0E0FF33FF339A4200D13EE1F6E09F
:100AD0008948824200D139E111D890231B019A4202
:100AE0001AD0864B9A4200D156E1A13B9A4200D0DF
:100AF000E5E0764B824C1B7823700B0028E181499E
:100B00008A4200D1D3E0804B9A4200D11EE17F4B54
:100B10009A4200D0D3E03FE13C00B2786B4B7D1CA1
:100B20001A702034FF3580222368134203D0606896
:100B3000083800F011FB0834AC42F4D10024250041
:100B4000734BE058002805D04368009300F004FB85
:100B50000098F7E76E4B18516E4BE0506E4BE05823
:100B6000002805D04368009300F0F6FA0098F7E7F4
:100B7000694B6A4A18516A4BE0506B00D052694B7E
:100B8000E85C0238032807D801F000F802040204E8
:100B9000002200E001225A5501350434072DCFD13F
:100BA00000230124604D2B70604B6149621EE318E5
:100BB0008A5C9B001A7008231A4220D000F0AEFA1B
:100BC0006301002805D0FA1808305060594AFA50DD
:100BD00003E0F8502B7801332B7000F09FFA0122CC
:100BE000A3001343DB00002805D0FA18083050603A
:100BF000019AFA5003E0F8502B789B182B700221D1
:100C00000023A2001143C9007B5003210A438A40FC
:100C10000134BB50082CC7D199E0394C2370637064
:100C2000022395E07F22B0880240072A47D8344C3F
:100C3000920023706370404BD218022312781A423C
:100C400000D185E0217083E07F23B2881A40072A13
:100C500035D87388002B32D10220374992005218C0
:100C60001178814329E07F23B2881A40072A26D8C9
:100C70007388002B23D102202F499200521811783B
:100C800001431AE07288B1882C4B5C68002C16D0A6
:100C90001888904209D15888884206D1120A032A3E
:100CA00001D1237854E01B8952E00C33EDE7244A4C
:100CB0001168244A1160B178234A117047E00F226D
:100CC0001D4B1A7068E0C04680200740BB0500201D
:100CD0002D050020BF0500209020074000F8FF1FD1
:100CE000A8050020A8040020C8004000BC05002082
:100CF0008106000002030000210A00002109000013
:100D0000B305002021220000212300002120000043
:100D100010050020AC0400207005002070070020A2
:100D20008C050020C8040020B205002030C8011046
:100D3000A029000088004000C0200740A82900002A
:100D4000A404002094070020D005002000231C00EC
:100D5000F5889D4200D91D002E00402D00D9402667
:100D600020003100FFF774FDA419AD1B03D12F0043
:100D7000402E04D010E04027AF4200D92F002000C1
:100D80003900FFF765FDE419ED1B01D1402F03D1B8
:100D90007E4B1C607E4B1D8001227E4B4AE07E4EC6
:100DA0007E4B32889A4211D100237D4AE95CD154AE
:100DB0000133072BFAD113680735862B02D10F2296
:100DC000784B1A7000210800FFF742FD764B32681D
:100DD0009A420AD1754B72689A4206D100212A784C
:100DE000734B08001A70FFF733FD724B236022E04B
:100DF000664F3E68002E13D0654B1C882500402CA2
:100E000000D9402529003000FFF722FD641B604B0C
:100E1000A4B21C80002C01D1402D00D174193C607B
:100E2000A0225D4BD2001988914204D100225A7051
:100E30009A78614B1A700122564B1A706AE00822A8
:100E40006068013D0838EDB2134037D000F084F9F6
:100E50005A49A80042585A4B002A1CD0566846509E
:100E60001100585D0831616003280BD800F08EFE38
:100E700002040608032104E0022102E0052100E04B
:100E8000042159550821C8230C4200D1403B128847
:100E9000120413433DE0585D032808D800F076FEA5
:100EA0003A3A0204002200E001225A5532E00822B8
:100EB0001440621E944102345C552BE02268110CF0
:100EC0008AB2028000291ED03E4943804360AB00B5
:100ED0005F583D4E002F01D1585001E0F158486055
:100EE0003A496D00F0506B5AD2186A5200F016F968
:100EF000002802D00830606005E0354A2060137891
:100F00000133137006E008231C4201D1314B00E08D
:100F1000284B23600822304B1A705EE50120044202
:100F20001ED002231B492B4C0B702C4B2C4E1A70DD
:100F30002C4B1C609C602C4C1A61DC600D249A6167
:100F40005E602A4B1C70FF23294C23701A4C2B70B7
:100F50002270284A13709F22274B1A70087013E0E2
:100F600063B2002B04DA0D22204B1A7080232B7001
:100F70000222144204D01E490B78DBB20B702A7097
:100F800010231C4200D02B70F7BDC046A8040020DF
:100F9000B005002094200740A80500202120000073
:100FA0008C0700202D05002021090002020001000D
:100FB000BE050020C80040009820074070050020B2
:100FC000C804002010050020AC0400207007002099
:100FD000B205002088004000802007402C0500203A
:100FE000D004002000F8FF1F30050020C02007407B
:100FF000882007408C2007408420074010B500F06F
:10100000E7FC002211001B4BD150981808324160B8
:10101000E82AF9D180201849C0020A6802430A6010
:101020001A0A1649D2B20A701A0C1549D2B20A70BD
:10103000144A1B0E1370FF23134A00201370134A27
:1010400013491370134A137001220A701249087071
:1010500012490A70124A116899430B0070210B4320
:10106000136080220F4B52041A6010220E4B1A702C
:1010700010BDC04600F8FF1F348004409C2007408C
:10108000B0200740B4200740802007408820074058
:10109000942007401020074000210740842007408B
:1010A00018E400E000E100E00821074070B5174CAB
:1010B000174B1B78002B25D00620FFF701FC154E9F
:1010C000022803D9013C002C13D115E000F026F8CA
:1010D000051EF7D0002434700C260F49320008306A
:1010E00001F09CFB06202E802900FFF737FC200032
:1010F0000AE03378002B02D00123337002E000F0C5
:1011000023FAD5E70120404270BDC04629320000D5
:10111000BB050020BD0500208007002070B572B619
:101120000B4D2C68200000F00BFE1D2802DD62B67E
:1011300000200CE080231B06C3409C432C6062B659
:1011400048235843034B181800230360436070BDC5
:1011500030020020C0F9FF1F10B504000E484821DE
:10116000201A00F027FD1D2814D80C4B1B78002BEB
:1011700007D00B4B1B78002B03D02000FFF7B2FBEE
:1011800008E072B680231B06C340064A11680B4371
:10119000136062B610BDC046C0F9FF1FB205002043
:1011A000BB0500203002002070B5114D2B68002BCC
:1011B0000CD0286843885A1CC3181C7A03889A42AA
:1011C00012D3FFF7C9FF00232B600EE0094B1B78F9
:1011D000002B02D10120404208E00320FFF756FB1C
:1011E00028600028E5D1F5E74280200070BDC046A8
:1011F000CC050020BB05002010B50D4C2368002B4A
:1012000003D02268002A0ED103E00A4B1B78002B82
:1012100002D10120404209E00320FFF737FB2060A4
:101220000028EED1F5E75388D318187A10BDC046D0
:10123000CC050020BB050020054B9888054B1A689B
:10124000002A03D0138852889B1AC0187047C046E2
:1012500070070020CC05002010B50A4B1B78002B2E
:101260000FD0094C2068002803D0FFF775FF00233A
:1012700023600320FFF70AFB002802D0FFF76CFF72
:10128000F7E710BDBB050020CC050020314A012343
:10129000F0B50C00170085B0019002911370039314
:1012A000002C53D02C4D2B68002B25D12B4E2C4BD2
:1012B0001B78DBB2002B01D13B7017E00420FFF755
:1012C000FFFA072809D86B461B7B3B70FFF726FF08
:1012D000214B186000280FD13870013E214B002EA1
:1012E00002D01A78002A04D001221A70012040424C
:1012F0002EE000F029F9DAE700221A4B29681A706B
:1013000040234A88981A2300844200D90300080029
:1013100008308018D2184A800022E41A934204D080
:10132000019EB65C86540132F8E7019AD318019306
:101330004B883F2B06D9402304200B80FFF70EFB80
:1013400000232B600522084B1A70A9E702983C7015
:1013500005B0F0BDC0050020C405002009750000DF
:10136000BB050020C8050020BF05002007B56B465F
:10137000D871073301211800FFF788FF0EBDFFFF6A
:10138000012370B50E4C0F4D23702B68002B10D12C
:101390000D4B1B78002B02D1002020700FE00420A1
:1013A000FFF78EFA0728F7D8FFF7B8FE2860002865
:1013B000F2D02B6858884023181A0023237070BD80
:1013C000C0050020C4050020BB050020F7B5124B66
:1013D0001B78002B1FD00126104F114B3C681E704C
:1013E0000193104D002C09D000262E706388210037
:1013F00023800420FFF7B2FA3E6009E0FFF78EFE7B
:10140000011E04D004202C70FFF7A8FA00E02E7013
:101410000023019A1370F7BDBB050020C40500200E
:10142000C0050020BF05002070B50E4B1C78E4B24B
:10143000002C15D10C4D2968002906D04B880420BA
:101440000B80FFF78BFA2C600AE0FFF767FE011EA6
:1014500003D00420FFF782FA02E00122034B1A7046
:1014600070BDC046C0050020C4050020BF05002097
:1014700010B5FFF751F8FFF775F800F065F8FAE7D7
:1014800037B5022504002A00054901A801F0C6F974
:1014900023682A005B6801A9200098473EBDC0462A
:1014A00074290000F0B50D000F2185B09446134A51
:1014B0006944ACB22F0C574301345443BBB2260CE1
:1014C0001C19A4193B0C240CDB19E3180A245B0833
:1014D0005C432D1B303501390D701D1EE9D163466B
:1014E000002B02D02D2301390B70CA4304ABD21854
:1014F00003685B68984705B0F0BDC0463333000011
:1015000010B5FFF7A9FE10BD10B5FFF775FE10BDB1
:1015100010B5FFF749FE10BD10B5FFF78DFE10BDE9
:1015200010B5FFF753FF10BD10B5FFF729FF10BD31
:1015300010B508001100FFF7A9FE10BD10B5080096
:10154000FFF714FF10BD704770B5234C2378002BB4
:1015500040D101332370FFF76FFE002801D0FFF761
:10156000F2FF00F0DBF8002801D000F00BFB00F0E8
:1015700041F9002801D000F006FB00F0A7F900288F
:1015800001D000F001FB00232370EFF30583002B53
:1015900020D1EFF3108272B6104D2868002803D0D6
:1015A0000F4C2178002903D0002A13D162B611E034
:1015B0000123237043692B60002B01D0996101E066
:1015C00008490B60002A00D162B600258368457780
:1015D0009847257070BDC046D205002064070020E2
:1015E00068070020600700201B4B1C4A19781C4B21
:1015F000082901D1002102E00A2903D12E3111600E
:10160000132206E00C2901D1283100E03C211160B1
:1016100012221A60134B1A78134B002A01D00022B1
:1016200000E001221A60114B1A78114B012A01D8EF
:1016300080220CE0042A01D8842208E0082A01D87C
:10164000852204E0102A01D8862200E087221A6051
:101650000122084B1A7070474402002008B0034072
:101660000CB00340D405002020B003404502002008
:1016700024B00340D305002070B580258026ED02FC
:10168000F6000B4C23682B4201D0FFF7A5F9236825
:10169000334201D000F052F823681B0501D500F059
:1016A000B9F82368DB04ECD500F020F9E9E7C0467F
:1016B0003480044010B5FFF7DFFFFFFF0022014B2D
:1016C0001A607047008104407047F8B506000D00AD
:1016D000170000243900300000F0F2FA0B00373315
:1016E000DBB2092901D83031CBB230002B5539009B
:1016F00000F060FA061E01D00134EBE72B19587098
:101700002B005A1B944206DD1A78295D19702A5560
:101710000133013CF5E72800F8BDFFFF054B1878C1
:10172000054BC0B21A78D3B2984200D24030C01AEA
:101730007047C04658060020D605002030B5234A21
:1017400013799B0611D5224BD479187819000130F2
:10175000E4B200233F2800DC03001E4800788342E7
:1017600003D01D48C454DBB20B70D1781748C9B2FE
:101770004BB2002B17DA03795BB2002B13DA174B4D
:10178000174C1D782378DBB29D4202D16C23C370C5
:1017900009E001333F2B00D900231248C05CDBB2C3
:1017A000C0B2D0712370402319420ED01179194272
:1017B0000BD000210C4B19700C4B1B688B4202D0D4
:1017C0000B49097819722C23D37030BD00A0064054
:1017D00058060020D60500201706002060060020CD
:1017E00059060020D7050020D50500205C06002002
:1017F00057060020054B1878054BC0B21A78D3B2B3
:10180000984200D24030C01A7047C046CC06002033
:101810006206002030B5234A13799B0611D5224B6E
:10182000D479187819000130E4B200233F2800DC95
:1018300003001E480078834203D01D48C454DBB225
:101840000B70D1781748C9B24BB2002B17DA037965
:101850005BB2002B13DA174B174C1D782378DBB2E1
:101860009D4202D16C23C37009E00133272B00D9BC
:1018700000231248C05CDBB2C0B2D0712370402399
:1018800019420ED0117919420BD000210C4B19705E
:101890000C4B1B688B4202D00B49097819722C2320
:1018A000D37030BD00B00640CC0600206206002098
:1018B0008B060020D4060020CD0600206306002001
:1018C00061060020D0060020CB060020054B1878CA
:1018D000054BC0B21A78D3B2984200D24030C01A39
:1018E0007047C04648070020DD06002030B52C4A6E
:1018F00013799B0623D52B4BD47918781900013026
:10190000E4B200233F2800DC03002748007883422C
:1019100003D02648C454D8B2087025490868002866
:101920000DD024490978C9B28B4201D35B1A01E07A
:101930005B1A4033272B02DD1F4B1B780371D178D4
:101940001748C9B24BB2002B17DA03795BB2002BF0
:1019500013DA1A4B174C1D782378DBB29D4202D163
:101960006C23C37009E00133272B00D900231448EE
:10197000C05CDBB2C0B2D0712370402319420ED0DC
:10198000117919420BD000210E4B19700E4B1B68B8
:101990008B4202D00D49097819722C23D37030BDC7
:1019A00000C0064048070020DD0600200707002091
:1019B000D806002049070020060700205007002015
:1019C000DE060020DC0600204C0700204707002030
:1019D00030B585B072B670224121154B1A70154A88
:1019E0001170154A3239117080221A701A7852B269
:1019F000002AFBDA114B186862B6114B984201D8E5
:101A00000A23584301AC0A222100FFF75EFE00239F
:101A10000C48E15C0500002905D05A00821801330A
:101A200051800A2BF5D101335B002B7005B030BD1E
:101A30000000024007000240060002400800024089
:101A40007F96980072040020EFF3108072B6434234
:101A50005841C0B27047002800D062B67047FFFFFF
:101A600010B5FFF7F1FF0C4A1468002C10D0636921
:101A70001360002B02D000229A6101E0074A136034
:101A8000FFF7E9FF002320006377A3689847E8E7A2
:101A9000FFF7E1FF10BDC0465407002058070020A3
:101AA00010B5FFF7DDFF10BD164930B50B68002BF0
:101AB00002D18360C36009E004681A68944207D2C7
:101AC0000025121B8360C560D8601A60086016E0AC
:101AD00002681C689968121B026000290CD00C680F
:101AE0000B00A242F4D28160C968A21AC160D8601A
:101AF000C16888601A6002E08160C3609860022358
:101B0000037530BD5C07002070B5174D2C68002CA4
:101B100019D02368002B02D0013B236013E0A26898
:101B2000002A00D0D360002120692A600368217553
:101B30001B68220098476368002BE7D023602000D1
:101B4000FFF7B2FFE2E7FFF77FFF0022074B1C68B9
:101B50001A60FFF780FF002C05D0A5682000FFF772
:101B6000A3FF2C00F7E770BD5C0700206C07002086
:101B700010B5034A136801331360FFF7C5FF10BDAA
:101B8000A4040020704770477047FFFF02B47146FD
:101B900049084900095C49008E4402BC7047C046B0
:101BA00003B47146490840004900095A49008E446F
:101BB00003BC7047002243088B4274D303098B4255
:101BC0005FD3030A8B4244D3030B8B4228D3030C0D
:101BD0008B420DD3FF22090212BA030C8B4202D3AF
:101BE0001212090265D0030B8B4219D300E0090AD7
:101BF000C30B8B4201D3CB03C01A5241830B8B42E0
:101C000001D38B03C01A5241430B8B4201D34B03C8
:101C1000C01A5241030B8B4201D30B03C01A52412D
:101C2000C30A8B4201D3CB02C01A5241830A8B42B2
:101C300001D38B02C01A5241430A8B4201D34B029B
:101C4000C01A5241030A8B4201D30B02C01A5241FF
:101C5000CDD2C3098B4201D3CB01C01A52418309B3
:101C60008B4201D38B01C01A524143098B4201D3ED
:101C70004B01C01A524103098B4201D30B01C01A18
:101C80005241C3088B4201D3CB00C01A5241830892
:101C90008B4201D38B00C01A524143088B4201D3BF
:101CA0004B00C01A5241411A00D20146524110461F
:101CB0007047FFE701B5002000F006F802BDC046FE
:101CC0000029F7D076E770477047C0468446081C65
:101CD0006146FFE71FB500F033FA002801D4002168
:101CE000C8421FBD10B500F0BFF94042013010BD21
:101CF00010B500F025FA002801DB002010BD0120FE
:101D000010BDC04610B500F01BFA002801DD002010
:101D100010BD012010BDC04610B500F0CDF900285F
:101D200001DC002010BD012010BDC04610B500F040
:101D3000C3F9002801DA002010BD012010BDC04603
:101D40001C2101231B04984201D3000C10391B0AEB
:101D5000984201D3000A08391B09984201D30009AF
:101D6000043902A2105C40187047C0460403020206
:101D7000010101010000000000000000F8B54A0266
:101D8000430244004E00C50F240E28009B09360E66
:101D9000C90F92098D4259D0A01B002800DC8DE0AC
:101DA000002E1AD1002A00D079E05A0704D00F2261
:101DB0001A40042A00D004335A0138D50134FF2CCC
:101DC00000D189E028009B015B0AE4B25B02E405D4
:101DD0005B0A2343C0071843F8BDFF2CE5D08021E0
:101DE000C9040A431B2800DD89E016002021C640F3
:101DF000081A8240511E8A4132439B1A5A0114D557
:101E00009B019E093000FFF79BFF05388640844206
:101E100065DC041B330020200134E340041BA64092
:101E2000721E964100243343BFE75A07BFD1DF0833
:101E30002800FF2C2FD1002F00D187E08022D20371
:101E400013003B435B025B0AFF24BFE7A11B002991
:101E500049DD002E29D0FF2CA7D08026F60432437E
:101E60001B2900DD8DE017002026CF40711A8A4023
:101E7000511E8A413A439B185A01D6D50134FF2C92
:101E800064D0012276491A405B080B4013438CE76B
:101E9000031ECAD100207B025B0AE4B296E7013838
:101EA0000028AAD0FF2C9DD17FE7002A00D17CE733
:101EB00001390029DFD0FF2CD2D176E7002820D1CC
:101EC000601CC0B2012853DD80279E1AFF043740F2
:101ED0002FD0D61A0D0095E72800002376E7614B36
:101EE000241A334061E700294DD1611CCEB2012E86
:101EF0002FDDFF292AD09B185B080C0055E7012233
:101F00007BE7002C1BD1002B5BD0C04300280CD0FA
:101F1000FF2E7ED01B2800DD92E01D002024C5404E
:101F2000201A8340581E83412B43D31A34000D00DE
:101F300064E7002E00D065E700200024ABE7FF2E09
:101F400067D08024E40440422343E3E7FF240023D6
:101F50003CE7002C61D1002B7ED0002A00D124E781
:101F60009B185A0100D460E73E4A0C0013401CE75E
:101F7000002C1ED1002B2FD1002A66D013000D009B
:101F800013E7012277E7002C1FD1002B5AD0C94359
:101F900000290BD0FF2E50D01B295FDC1F0020240E
:101FA000CF40611A8B40591E8B413B439B18340034
:101FB00062E7002B1CD1002A4AD013000D00FF2439
:101FC000F3E6130034000D00EFE6FF2E35D0802439
:101FD000E40449422343DFE7002A00D1E5E68027F5
:101FE000981AFF04074000D152E7D31A0D00DCE62F
:101FF000FF24002A00D1D8E68020DB08C00303427A
:1020000004D0D208024201D113000D00DB00FF24EE
:10201000CBE61300FF240D00C7E6002B0DD0FF24F4
:10202000002A00D1C1E68021DB08C9030B42EDD0B4
:10203000D2080A42EAD11300E8E71300FF24B4E60D
:10204000012372E713003400AFE60027002022E7E7
:1020500080270020FF03F1E61300A6E60123A5E791
:10206000FFFFFF7DFFFFFFFB430270B542004C0006
:102070005D0AC30F4802120E460A240EC90FFF2A3A
:102080000FD0FF2C11D00120A24200D070BDB5426C
:10209000FCD18B420DD0002AF8D12800431E984174
:1020A000F4E70120002DF1D1EBE70120002EEDD166
:1020B000E9E70020EAE7C0464302F0B542005D0AC6
:1020C000C30F4802440A4800120E000EC90FFF2A2F
:1020D0001FD0FF2822D0002A09D16E426E4100286D
:1020E0000FD1002C0DD10020002D09D005E00028D3
:1020F00001D1002C01D08B4213D058420123184348
:10210000F0BD002EF7D0484241410120494208432A
:10211000F6E7002DDDD002204042F1E7002CDAD0B6
:10212000F9E78242E9DC04DBA542E6D80020A542BB
:10213000E6D25842434101205B421843E0E7C046E3
:102140004302F0B542004C005E0AC30F4802120E73
:10215000450A240EC90FFF2A17D0FF2C19D0002AD8
:102160000BD170427041002C17D0002807D0484294
:102170004141012049420843F0BD002C13D08B425D
:1021800014D0584201231843F6E70220002EF3D161
:10219000E3E70220002DEFD1E1E7002DE5D100209B
:1021A000002EE9D0EDE7002DE9D1EAE7A242E8DC14
:1021B00004DBAE42E5D80020AE42DDD258424341B6
:1021C00001205B421843D7E7F0B557464E464546D7
:1021D0004300E0B446028846760A1F0EC40F002F63
:1021E00047D0FF2F25D0002380259A469946F60038
:1021F000ED042E437F3F434642465D02D20F5B0013
:102200006D0A1B0E904640D0FF2B39D08022002053
:10221000ED00D20415437F3BFB1842465746591C3C
:1022200062408C4607430F2F5CD86F49BF00C959E5
:102230008F46002E45D108239A46063B9946DAE799
:10224000424602282DD0032800D1C3E0012800D047
:10225000A2E0002500260240D4B27602ED05760AFF
:102260002E43E407264330001CBC90469946A24604
:10227000F0BD002E1AD104239A46033B9946BAE7D3
:102280002A00511E8A41901CC6E70120002DC3D0B0
:102290002800FFF755FD431F76309D404342002044
:1022A000BAE70124FF2514400026D6E73000FFF7E7
:1022B00047FD431F9E400023763047429A46994689
:1022C00099E70C239A46093B994694E78026002417
:1022D000F603FF25C1E735004846B2E73500220086
:1022E0004846AEE72904090C0800370C3604360CC2
:1022F0002C0C7943704367437443060C64183619F9
:10230000B14203D980214902884647440004000CA9
:10231000310409188D01681E8541890E2943350C49
:10232000ED19AD010D43290104D5012369081D40B4
:1023300063460D4319007F31002925DD680704D06D
:102340000F202840042800D00435280103D5274950
:1023500080330D401900FE29A3DC0124AD016E0A73
:102360001440CDB279E78020C003064207D0054271
:1023700005D128434602760A4446FF256DE7064309
:102380007602760AFF2568E70124611A1B2905DD1C
:1023900014400025002660E76346CBE72E0020238B
:1023A000CE40591A8D406B1E9D412E43730704D0B9
:1023B0000F233340042B00D00436730104D50124CD
:1023C00001251440002648E70124B601760A14408E
:1023D000002542E780260124F6032E437602760A82
:1023E0001440FF2539E7C0465C2A0000FFFFFFF7D5
:1023F000F8B54A024E0043024400240EC50F9B0963
:10240000360EC90F9209FF2E00D183E00120414012
:10241000A01BA9425CD0002800DC95E0002E1CD156
:10242000002A00D081E05A0704D00F221A40042A63
:1024300000D004335A013BD50134FF2C00D191E088
:1024400001209B015B0AE4B205405B02E4055B0AE4
:10245000ED0723432B431800F8BDFF2CE3D0802168
:10246000C9040A431B2800DD90E016002021C64065
:10247000081A8240511E8A4132439B1A5A0115D5CF
:102480009B019E093000FFF75BFC053886408442C3
:102490006CDC041B330020200134E340041BA64005
:1024A000721E964100243343BDE70D005A07BCD18C
:1024B000DF0801231D40FF2C33D1002F00D190E015
:1024C0008022D20313003B435B025B0AFF24BCE77C
:1024D00000284FDD002E2ED0FF2CA4D08025ED0447
:1024E0002A431B2800DD97E016002025C640281A45
:1024F0008240501E824132439B185A01D5D5013487
:10250000FF2C6DD001227B481A405B080340134327
:102510000D0088E7002A00D07AE777E7031EC5D1CF
:1025200000257B025B0AE4B28FE701380028A4D0C3
:10253000FF2C97D177E7002A00D174E701380028F3
:10254000DAD0FF2CCDD16EE7002821D1601CC0B2BB
:10255000012858DD80279E1AFF0437402FD0D61A55
:102560000D008FE701231D4000236EE7624B241A04
:10257000334058E7002851D1601CC6B2012E33DD2C
:10258000FF282DD09B185B0804004CE7012274E75C
:10259000002C1AD0FF2E1FD08024E4044042234395
:1025A0001B2800DD96E01D002024C540201A834032
:1025B000581E83412B43D31A34000D005EE7002ED2
:1025C00000D05FE700250024ABE7002B44D0C043D8
:1025D0000028F0D0FF2EE3D11300FF240D0022E7E6
:1025E0000D00FF24002330E7002C5DD1002B7DD0AF
:1025F000002A00D117E79B185A0100D456E73E4A3B
:10260000040013400FE7002C1ED1002B2FD1002A0D
:1026100065D013000D0006E701226DE7002C1FD1E5
:10262000002B59D0C04300280BD0FF2E4FD01B28C1
:102630005EDC1D002024C540201A8340581E8341C3
:102640002B439B18340058E7002B1CD1002A49D09B
:1026500013000D00FF24E6E6130034000D00E2E64F
:10266000FF2E34D08024E40440422343DFE7002AD5
:1026700000D1D8E68027981AFF04074000D14DE723
:10268000D31A0D00CFE6FF24002A00D1CBE680202C
:10269000DB08C003034204D0D208024201D1130078
:1026A0000D00DB00FF24BEE6002B10D0FF24002A23
:1026B00000D1B8E68020DB08C003034203D0D20873
:1026C000024200D11300DB000D00FF24ABE6130033
:1026D000FF24A8E601236EE713003400A3E60027D9
:1026E00000251EE780270025FF03E9E613009AE690
:1026F0000123A6E7FFFFFF7DFFFFFFFB4302590A0F
:102700004300C20F1B0E00207E2B0EDD9D2B0DDC27
:10271000802000040143952B0BDC9620C31AD9407E
:102720000B005842002A00D118007047034BD01804
:10273000FBE7963B99400B00F3E7C046FFFFFF7FA6
:1027400070B5002830D0C317C5185D40C40F2800ED
:10275000FFF7F6FA9E231B1A962B0DDC9622D21A4F
:1027600095406A02520AD8B25202C005520AE407E2
:1027700002432243100070BD992B19DC9922D21A12
:102780009540124A2A40690704D00F210D40042DBC
:1027900000D00432510103D50C4B1A409F231B1A61
:1027A0009201520AD8B2DFE7002400200022DBE7C2
:1027B00005222E00121AB921D6402A00C91A8A40D1
:1027C000551EAA4135001543DBE7C046FFFFFFFB5E
:1027D0000E4B70B500251E000D4CE41AA410A54246
:1027E00004D0AB00F35898470135F8E700F056F9EC
:1027F000084B00251E00084CE41AA410A54204D082
:10280000AB00F35898470135F8E770BDA82A0000DF
:10281000A82A0000A82A0000AC2A0000002310B556
:102820009A4203D0CC5CC4540133F9E710BDFFFFDA
:10283000420000F840A0044001000000420000F8FF
:1028400044A0044002000000C00000F800C00440A2
:1028500001000000000000F80490044002000000A5
:10286000000000F80890044004000000C00000F8D8
:102870001CC0044080000000C00000F810C00440EC
:1028800010000000C00000F808C004400400000070
:10289000C00000F80CC0044008000000800000F8F0
:1028A0000CB0044008000000800000F810B00440A4
:1028B00010000000800000F818B004404000000044
:1028C000800000F81CB0044080000000800000F888
:1028D00014B0044020000000C00000F804C0044010
:1028E00002000000800000F800B004400100000079
:1028F000400000F800A0044001000000400000F883
:1029000004A0044002000000400000F80CA00440B5
:1029100008000000400000F808A004400400000087
:10292000C00000F814C0044020000000C00000F8FF
:1029300018C0044040000000800000F804B00440CB
:1029400002000000800000F808B00440040000000D
:10295000020100F850D0044010000000020100F80D
:1029600054D0044020000000030100F878D0044057
:10297000400000000D0AFFFF000000000000000002
:102980003D1500003115000029150000211500003B
:1029900019150000111500000915000001150000AF
:1029A00015151915151515FF000100009A020020D4
:1029B0001200000000020000C4020020AF0000006E
:1029C00000220200730300203F00000000210200EB
:1029D0001803002009000000002203004602002026
:1029E0005400000000210300310300200900000012
:1029F00000220400B2030020550000000021040062
:102A00004A030020090000000022050007040020FE
:102A100028000000002105006303002009000000D9
:102A2000000300006E040020000000000103090400
:102A3000AC02002000000000020309043004002062
:102A400000000000030309047204002000000000DD
:102A5000000000000000000000000000E422000070
:102A6000422200004222000040220000D622000044
:102A7000D6220000CC22000040220000D622000016
:102A8000CC220000D622000040220000DC22000000
:102A9000DC220000DC22000066230000F8B5C046FE
:0C2AA000F8BC08BC9E46704739040000DA
:042AAC00F8B5C04673
:102AB000FFFFFFFF8029000000000000E803000086
:102AC000000000000A0405010902A10185010509B1
:102AD00019012908150025019508750181020501D4
:102AE0000930093109381581257F7508950381065C
:102AF000050C0A38021581257F750895018106C0ED
:102B000005010902A10185020501093009311500FD
:102B100026FF7F751095028102C012011001EF029D
:102B20000140C01687047302010203011803540018
:102B3000650065006E00730079006400750069002F
:102B40006E006F000902AF00060100C032080B00E2
:102B5000020202010409040000010202010005242E
:102B600000100105240101010424020605240600C9
:102B7000010705820310004009040100020A000059
:102B80000007050302400000070584024000000919
:102B90000402000103010100092111010001223F8B
:102BA0000007058103080001090403000103000078
:102BB00000092111010001225400070585030800C6
:102BC00002090404000103000000092111010001B1
:102BD000225500070586030C0001090405000103C6
:102BE00000000009211101000122280007058703C8
:102BF00008000405010906A10175019508050719DA
:102C0000E029E715002501810295017508810395EA
:102C100005750105081901290591029501750391B2
:102C200003950675081500257F05071900297F8182
:102C300000C005010904A1011500250175019520B9
:102C40000509190129208102150025073500463B99
:102C500001750495016514050109398142050109D1
:102C600001A100150026FF03750A950409300931FA
:102C7000093209358102C0150026FF03750A950245
:102C8000093609368102C0050C0901A101750A95B2
:102C90000419002A9C021500269C0281000501757A
:102CA000089503190029B7150026B7008100C00058
:102CB0003E03530065007200690061006C002F0044
:102CC0004B006500790062006F00610072006400D3
:102CD0002F004D006F007500730065002F004A0043
:102CE0006F00790073007400690063006B000403D7
:102CF00009040C03000000000000000000000000B8
:082D00000000000000000000CB
:00000001FF
