:1000000000180020C1000000550800001908000079
:10001000190800001908000019080000190800005C
:100020001908000019080000190800005508000010
:100030005508000019080000651700003518000079
:10004000550800005508000055080000550800003C
:10005000550800005508000055080000550800002C
:10006000550800005508000055080000550800001C
:1000700001190000D9190000B11A0000550800004C
:1000800055080000550800005508000055080000FC
:1000900055080000550800005508000055080000EC
:1000A000ED0B000055080000550800005508000041
:1000B00055080000550800005508000055080000CC
:1000C000F8B500F067FB0821474A484B1A60484AD8
:1000D000484B1A60484A494B1A60494B1A780A4201
:1000E00002D01A780A431A702A22464B46481A70E0
:1000F00000234649464C1A188A4203D2E558043375
:100100001560F8E70021434B434A934201D202C3F2
:10011000FBE70023414A424958589446985004331B
:10012000C02BF9D100210326FF2580248A083D4BEE
:100130009200D2180B002F003340DB009F40106864
:100140000131B84307002000984003003B4313608F
:100150002029EBD16246344B1A608A22334B1A7045
:10016000334B663A5A707C321A709E3A9979114232
:10017000FCD0102299791142FCD10C209A792C499B
:100180000240082AFAD1053A0A713D324A71203AF2
:1001900099791142FCD0402299791142FCD025492D
:1001A000254A11602021224A117014399A790A4097
:1001B0000C2AFBD1214A224B1A60224A224B1A6098
:1001C0000022224B1A60224B07321A60214A224B2E
:1001D0001A6062B600F0DEFB01F0D6FD00F03DFBD8
:1001E00000F012FBFEE7C046300004F0348004400B
:1001F000823F0000388004400100000F3C80044032
:1002000002D0074000E0074080000020CC02002020
:1002100048200000CC020020C005002000F9FF1F8C
:100220000000000000E400E008ED00E0005006409F
:10023000004006400000011044800440C000050555
:10024000048004407FBB000014E000E018E000E000
:1002500010E000E00000202020ED00E0FFFFFFFFA5
:10026000FFFFFFFFFFFFFFFFFFFFFFFFFFFFFFFF9E
:10027000FFFFFFFFFFFFFFFFFFFFFFFFFFFFFFFF8E
:10028000FFFFFFFFFFFFFFFFFFFFFFFFFFFFFFFF7E
:10029000FFFFFFFFFFFFFFFFFFFFFFFFFFFFFFFF6E
:1002A000FFFFFFFFFFFFFFFFFFFFFFFFFFFFFFFF5E
:1002B000FFFFFFFFFFFFFFFFFFFFFFFFFFFFFFFF4E
:1002C000FFFFFFFFFFFFFFFFFFFFFFFFFFFFFFFF3E
:1002D000FFFFFFFFFFFFFFFFFFFFFFFFFFFFFFFF2E
:1002E000FFFFFFFFFFFFFFFFFFFFFFFFFFFFFFFF1E
:1002F000FFFFFFFFFFFFFFFFFFFFFFFFFFFFFFFF0E
:10030000FFFFFFFFFFFFFFFFFFFFFFFFFFFFFFFFFD
:10031000FFFFFFFFFFFFFFFFFFFFFFFFFFFFFFFFED
:10032000FFFFFFFFFFFFFFFFFFFFFFFFFFFFFFFFDD
:10033000FFFFFFFFFFFFFFFFFFFFFFFFFFFFFFFFCD
:10034000FFFFFFFFFFFFFFFFFFFFFFFFFFFFFFFFBD
:10035000FFFFFFFFFFFFFFFFFFFFFFFFFFFFFFFFAD
:10036000FFFFFFFFFFFFFFFFFFFFFFFFFFFFFFFF9D
:10037000FFFFFFFFFFFFFFFFFFFFFFFFFFFFFFFF8D
:10038000FFFFFFFFFFFFFFFFFFFFFFFFFFFFFFFF7D
:10039000FFFFFFFFFFFFFFFFFFFFFFFFFFFFFFFF6D
:1003A000FFFFFFFFFFFFFFFFFFFFFFFFFFFFFFFF5D
:1003B000FFFFFFFFFFFFFFFFFFFFFFFFFFFFFFFF4D
:1003C000FFFFFFFFFFFFFFFFFFFFFFFFFFFFFFFF3D
:1003D000FFFFFFFFFFFFFFFFFFFFFFFFFFFFFFFF2D
:1003E000FFFFFFFFFFFFFFFFFFFFFFFFFFFFFFFF1D
:1003F000FFFFFFFFFFFFFFFFFFFFFFFFFFFFFFFF0D
:10040000FFFFFFFFFFFFFFFFFFFFFFFFDEF9FFFF23
:1004100010B5064C2378002B07D1054B002B02D0DA
:10042000044800E000BF0123237010BDCC0200206F
:100430000000000048200000084B10B5002B03D03E
:100440000749084800E000BF07480368002B00D1B7
:1004500010BD064B002BFBD09847F9E700000000C9
:10046000D002002048200000CC0200200000000044
:1004700010B50C210B4801F017F80B4800F0B2F949
:1004800001210D2000F012FA2022084B0A201A60E8
:10049000074B1F3A1A7000F063FA3221054800F04A
:1004A0007BF910BDE61D000080000020840000F8EC
:1004B000F5030020E8020020F7B580240421002085
:1004C00000F0F4F9534B64021C60C046C046C046BD
:1004D000C046C046C046C046C046C046C046C046EC
:1004E000C046C046C046C046C046C046C046C046DC
:1004F000C046C046C046C046C046C046C046C046CC
:10050000C046C046C046C046C046C046C046C046BB
:10051000C046C046C046C046C046C046C046C046AB
:10052000C046C046C046C046C046C046C046C0469B
:10053000C046C046C046C046C046C046C046C0468B
:10054000C046C046C046C046C046C046C046C0467B
:10055000C046C046C046C046C046C046C046C0466B
:10056000C046C046C046C046C046C046C046C0465B
:10057000C046C046C046C046C046C046C046C0464B
:10058000C046C046C046C046C046C046C046C0463B
:10059000C046C046C046C046C046C046C046C0462B
:1005A000C046C046C046C046C046C046C046C0461B
:1005B000C046C046C046C046C046C046C046C0460B
:1005C000C046C046C046C046C046C046C046C046FB
:1005D000C046C046C046C046C046C046C046C046EB
:1005E000C04600210C4B08001C6000F05FF90B4B6B
:1005F0000B481A6800921A000099802305685B0274
:10060000074E25420ED013680193019B5B1A012B04
:10061000F3D9AAE0480000F8440000F8EC020020FA
:10062000500000F832681A42FCD0524D280000F009
:10063000CFF872B6002280211400012049023368ED
:100640000B42FCD1C046C046C046C046C046C0466C
:10065000C046C046C046C046C046C046C046C0466A
:10066000C046C046C046C046C046C046C046C0465A
:10067000C046C046C046C046C046C046C046C0464A
:10068000C046C046C046C046C046C046C046C0463A
:10069000C046C046C046C046C046C046C046C0462A
:1006A000C046C046C046C046C046C046C046C0461A
:1006B000C046C046C046C046C046C046C046C0460A
:1006C000C046C046C046C046C046C046C046C046FA
:1006D000C046C046C046C046C046C046C046C046EA
:1006E000C046C046C046C046C046C046C046C046DA
:1006F000C046C046C046C046C046C046C046C046CA
:100700001D4B1B681B0C034093401C4333680B427A
:10071000FCD00132202A00D091E762B6280000F018
:1007200057F8164E164B7168164A1940A30313402A
:10073000154F0B4373603B78002B01D100F0BCFDDB
:10074000124BA4091C407268114B13401C433B78A8
:100750007460002B01D100F0AFFD280000F038F8E4
:1007600000F0AAFD012000F0FBF8024800F030F88C
:10077000F7BDC046E8020020500000F8B405002094
:10078000FF3F00FF00C0FF00F5030020F03F000026
:100790000FC0FFFF7047FFFF4A1E0C4BFF2A01D915
:1007A0000C2203E00822202900DC04221A601A68C7
:1007B0000C2313400C2B05D02020082B04D18020C3
:1007C000400001E08020C0007047C0460081044026
:1007D00072B65522024B1A6092181A6062B67047C0
:1007E0000481044037B5022504002A00054901A808
:1007F00001F0F0FA23682A005B6801A920009847FD
:100800003EBDC046F31D000010B5FFF731FEFFF7F7
:1008100053FE00F02BFFFAE770B580258026ED022D
:10082000F6000B4C23682B4201D000F0DFF923685F
:10083000334201D001F064F823681B0501D501F0B3
:10084000CBF82368DB04ECD501F032F9E9E7C046C8
:100850003480044010B5FFF7DFFF7047F8B506009D
:100860000D00170000243900300001F069FA0B0078
:100870003733DBB2092901D83031CBB230002B55E8
:10088000390001F0D7F9061E01D00134EBE72B192E
:1008900058702B005A1B944206DD1A78295D197096
:1008A0002A550133013CF5E72800F8BDF0B51A28B8
:1008B0002FD80C2217004743164CE5196B68260009
:1008C000012901D0042911D1504334583018257D15
:1008D000027A20202A432275A22252001A601A6846
:1008E000042901D1024313E0824311E038592C7AE4
:1008F000027DA24302758022002908D0022902D17C
:100900000422FF3204E00022032901D18122520097
:100910001A60F0BDF81D000072B60C4B1A680C4B43
:1009200018680C4B1B6862B65B0104D532239342F6
:100930009B415B42C018084B9A1A084B5A43FA2352
:100940009B005843920D10187047C04618E000E015
:10095000EC02002004ED00E07FBB000055550100D3
:1009600070B50400FFF7D8FF0500002C0FD0FFF78B
:10097000D3FF074B401B984206D9013C002C06D000
:10098000FA239B00ED18F2E700F070FEEFE770BD70
:10099000E703000080221E4BD20510B51A608022AA
:1009A000002012061A601B4B1B4918601B4B1C4A87
:1009B0001960282313601B4A1B4C13601B4A1360E9
:1009C0001B4A13601B4A13601B4A136009222260F2
:1009D0001A4C20601A4C21601A4C23601A4C236078
:1009E0001A4C22601A4C20601A4801601A490B60A8
:1009F0001A490B601A4B1A6000F02AFF1920FFF702
:100A0000AFFF00F0E1FB1420FF30FFF7A9FF10BD9E
:100A100000E100E004800340FFBF000008800340C5
:100A20000C80034014800340008003401C8003407E
:100A3000248003402C800340348003400490034012
:100A4000089003400C900340149003400090034032
:100A500004A0034008A003400CA0034014A00340DE
:100A600000A003400223F0B50A4A0B4E1478C827B1
:100A70002343DB00F518686008480578002D00D195
:100A8000403F09040F43F75001235D405C4005706F
:100A90001470F0BD6C03002000F8FF1FF403002069
:100AA000431E10B50020052B0ED872B6074A9900D8
:100AB0008858002807D044685B008C50044904889B
:100AC0005A5A121B5A5262B610BDC0465403002037
:100AD000A6050020431E0020052B09D872B6054A42
:100AE0009B009B58002B02D001305B68FAE762B68E
:100AF0007047C046B0030020F8B572B60123174A0C
:100B0000082594461E00164964465A1EA25C2A42D5
:100B10001AD05F017C589A00002C05D1CB190830FF
:100B20005860104BCB5109E03243D2005458002C8E
:100B30000AD18B18083058600B4B8B500B4A137836
:100B4000013B137062B608E00133072BDCD162B6BB
:100B50000022064B1A7000F005FCF8BD601F000073
:100B600000F8FF1F88004000C8004000EA03002092
:100B7000421E10B5052A30D8022380001843174BB7
:100B8000C0001B1872B6164CA05C03280BD801F0ED
:100B90003DF816040207052012E0083302200FE09A
:100BA000083304200CE00F48920014580E4B002C20
:100BB00001D1115001E09858416099500CE0032098
:100BC000A0540A0008325A60C822180700D4403ADC
:100BD000098809040A431A6062B610BD00F8FF1FB5
:100BE0000C030020B0030020C8030020F7B5BA4B67
:100BF0001C781D000423E4B21C421DD0B74B1B78A7
:100C0000002B16D0B64A1378DBB2002B05D0013B7F
:100C1000DBB21370002B00D100BEB24A1378DBB2F6
:100C2000002B06D0013BDBB21370002B01D100F08A
:100C300001FD0422A84B1A700822224000D155E27F
:100C4000A94BAA4F1B78DBB29C08E4001D093C1994
:100C5000002D00D0DBE1226863689006000F0138A8
:100C60000C2800D9CFE100F0DBFF81018101CE012A
:100C7000CE01CE01CE01CE01CE01AB01CE01CE011F
:100C8000CE010D001A689A4E5B689A497360002382
:100C90000B600121984832602060984C92B221701C
:100CA000974C3B61BB610190A24218D8D020C00094
:100CB000824200D3E1E081204000824200D1BDE0C9
:100CC00006D8802A00D1A3E0822A00D1A5E0E9E07D
:100CD0008C4B9A4200D1C0E0FF33FF3313E09023E6
:100CE0001B019A4213D009D8803B9A4200D0D9E028
:100CF0007A4B854C1B7823700B00D9E0834B9A42CA
:100D000000D130E1824B9A4200D1CFE0CAE03C00F2
:100D10003D00B278714B20341A70E0358022236890
:100D2000134203D06068083800F01CFB0834AC4262
:100D3000F4D100242500774BE058002805D0436803
:100D4000009300F00FFB0098F7E7724B1851724BBD
:100D5000E050724BE058002805D04368009300F043
:100D600001FB0098F7E76D4B6D4A18516D4BE05051
:100D70006B00D0526C4BE85C0238032807D800F0B7
:100D800045FF02040204002200E001225A55013509
:100D90000434062DCFD100230124644D2B70644B05
:100DA0006449621EE3188A5C9B001A7008231A4289
:100DB00020D000F0B9FA6301002805D0FA180830F5
:100DC00050605D4AFA5003E0F8502B7801332B70E5
:100DD00000F0AAFA0122A3001343DB00002805D08B
:100DE000FA1808305060019AFA5003E0F8502B7856
:100DF0009B182B7002210023A2001143C9007B50D5
:100E000003210A438A400134BB50072CC7D14EE06E
:100E10003D4C2370637002234AE07F22B088024079
:100E2000062A3FD8384C920023706370434BD21887
:100E3000022312781A423BD0217039E07F23B28816
:100E40001A40062A2ED87388002B2BD102203B494A
:100E500092005218117881430DE07F23B2881A4026
:100E6000062A1FD87388002B1CD102203349920018
:100E7000521811780143117019E07288B188304B13
:100E80005C68002C0ED01888904209D1588888429E
:100E900006D1120A032A01D1237809E01B8907E051
:100EA0000C33EDE70F22254B1A705CE000231C0089
:100EB000F5889D4200D91D002E00402D00D9402606
:100EC00020003100FFF7CEFDA419AD1B3AD12F0051
:100ED000402E3BD047E0C04680200740F30300206F
:100EE0006D030020080400209020074000F8FF1F39
:100EF000E0030020F0020020C8004000F4030020BE
:100F00008106000002030000EB030020210900001D
:100F1000210A000054030020F4020020B003002046
:100F2000A6050020C80300200C030020EA030020CF
:100F300030C80110601F000088004000C02007403A
:100F4000681F00004027AF4200D92F002000390061
:100F5000FFF788FDE419ED1B01D1402F03D17F4B32
:100F60001C607F4B1D8001227E4B4BE07E4A7F48F8
:100F70001168814207D18021526849028A421CD1FE
:100F80001A787B4B14E07B48814216D17A4952682B
:100F90008A4212D11A78A92A0FD15A78452A0CD13F
:100FA0009A78C22A09D1DB786B2B06D1734BBD3AF4
:100FB00000211A700800FFF755FD714B236022E0F5
:100FC000664F3E68002E13D0654B1C882500402CD0
:100FD00000D9402529003000FFF744FD641B604B19
:100FE000A4B21C80002C01D1402D00D174193C60AA
:100FF000A0225D4BD2001988914204D100225A7080
:101000009A78604B1A700122564B1A706AE00822D7
:101010006068013D0838EDB2134037D000F0A2F906
:101020005949A8004258594B002A1CD056684650CE
:101030001100585D0831616003280BD800F0E6FD0F
:1010400002040608032104E0022102E0052100E079
:10105000042159550821C8230C4200D1403B128875
:10106000120413433DE0585D032808D800F0CEFD7C
:101070003A3A0204002200E001225A5532E00822E6
:101080001440621E944102345C552BE02268110C1E
:101090008AB2028000291ED03D4943804360AB00E4
:1010A0005F583C4E002F01D1585001E0F158486084
:1010B00039496D00F0506B5AD2186A5200F034F979
:1010C000002802D00830606005E0344A20601378C0
:1010D0000133137006E008231C4201D1304B00E0BD
:1010E000274B236008222F4B1A7080E50120044211
:1010F0001ED002231B492A4C0B702B4B2B4E1A700F
:101100002B4B1C609C602B4C1A61DC600D249A6197
:101110005E60294B1C70FF23284C2370194C2B70E8
:101120002270274A13709F22264B1A70087013E012
:1011300063B2002B04DA0D221F4B1A7080232B7030
:101140000222144204D01D490B78DBB20B702A70C6
:1011500010231C4200D02B70F7BDC046F0020020C7
:10116000E803002094200740E0030020210900024A
:10117000F703002021090003020004006D03002092
:10118000C800400098200740B00300200C03002056
:1011900054030020F4020020A6050020EA030020EA
:1011A00088004000802007406C03002014030020CA
:1011B00000F8FF1F70030020C02007408820074070
:1011C0008C2007408420074010B500F0E3FC00228B
:1011D00011001B4BD150981808324160C82AF9D130
:1011E00080201849C0020A6802430A601A0A164998
:1011F000D2B20A701A0C1549D2B20A70144A1B0EE8
:101200001370FF23134A00201370134A13491370FD
:10121000134A137001220A701249087012490A70A9
:10122000124A116899430B0070210B43136080220E
:101230000F4B52041A6010220E4B1A7010BDC0469C
:1012400000F8FF1F348004409C200740B020074076
:10125000B4200740802007408820074094200740A2
:1012600010200740002107408420074018E400E0D8
:1012700000E100E00821074010B500F0C9F810BDFA
:1012800010B500F097F810BD10B500F0E3F810BDF0
:1012900010B500F0ABF910BD10B500F081F910BD2C
:1012A00010B50800110000F0FFF810BD10B50800DF
:1012B00000F06CF910BD704770B5174C174B1B78D8
:1012C000002B25D00420FFF705FC154E022803D97A
:1012D000013C002C13D115E000F026F8051EF7D0D4
:1012E000002434700C260F493200083000F072FDE3
:1012F00004202E802900FFF73BFC20000AE0337811
:10130000002B02D00123337002E000F0AFF9D5E7E3
:101310000120404270BDC04629320000F303002086
:10132000F6030020B405002070B572B60B4D2C6892
:10133000200000F00BFD172802DD62B600200CE053
:1013400080231B06C3409C432C6062B6482358434D
:10135000034B181800230360436070BD9000002009
:10136000C0F9FF1F10B504000E484821201A00F0F4
:1013700061FC172814D80C4B1B78002B07D00B4BA3
:101380001B78002B03D02000FFF7B6FB08E072B6F5
:1013900080231B06C340064A11680B43136062B6E4
:1013A00010BDC046C0F9FF1FEA030020F303002070
:1013B0009000002070B5144B1B78002B20D0134DEB
:1013C0002B682E00002B03D10220FFF769FB286059
:1013D0002868002814D04388C218147A002C0BD037
:1013E00002880133934204D3FFF7BCFF002333602C
:1013F00000E04380200005E0FFF7B4FF2C60DAE74F
:101400000120404270BDC046F303002004040020C8
:1014100070B50E4B1B78002B13D00D4D2B68002B95
:1014200003D10220FFF73CFB28602868002808D081
:101430004388C3181C7A002C06D1FFF793FF2C6059
:10144000E7E70120404200E0200070BDF3030020E8
:101450000404002070B5124C2368002B04D02068CF
:1014600042880188130010E00E4B1B78002B03D03C
:101470000220FFF715FB20602568002DEFD10CE05E
:10148000C618367A002E03D001339D1A8B42F7DB43
:10149000002D02D1FFF766FF2560280070BDC04611
:1014A00004040020F3030020324BF7B501220C00A6
:1014B0001F0001901A70002C58D02F4D2B68002B64
:1014C00028D12E4E2E4B1B78DBB2002B18D00120DA
:1014D000FFF700FB052804D9013E2A4A002E09D156
:1014E0000BE001233B70FFF71FFF234B1860002820
:1014F000F2D00FE01378002B06D0012313700023E5
:1015000001203B70404233E03B7000F0AFF8012314
:101510003B70D7E700221B4B29681A7040234A888A
:10152000981A2300844200D903000800083080186C
:10153000D2184A800022E41A934204D0019EB65C7D
:1015400086540132F8E7019AD31801934A880E4B6A
:101550003F2A02D805221A70ADE7402200260A80F1
:1015600001201E70FFF704FB2E60A4E720003C70F2
:10157000FEBDC046F8030020FC0300202932000015
:10158000F3030020000400200804002007B56B4688
:10159000D871073301211800FFF786FF0EBDFFFF4A
:1015A000012070B50E4D0F4C2B682070002B0FD111
:1015B0000D4B1B78002B02D1002020700EE0FFF7AE
:1015C00089FA0528F8D8FFF7AFFE28600028F3D085
:1015D0002B6858884023181A0023237070BDC0461A
:1015E000FC030020F8030020F303002010B50E4B8D
:1015F0001B78002B16D00D4C2168002912D04B8887
:10160000002B0FD000220A4802703F2B03DCC818C1
:1016100002720133F9E7402301200B80FFF7A8FA9B
:101620000023236010BDC046F3030020FC0300200C
:101630000804002010B50B4B1B78DBB2002B0FD138
:10164000094C21684A883F2A03DC8818037201325A
:10165000F9E7402301200B80FFF78AFA002323607B
:1016600010BDC046F8030020FC03002070B5234CD9
:101670002378002B40D101332370FFF7EBFE0028C5
:1016800001D0FFF718FE00F02BF9002801D000F080
:10169000DBF800F091F9002801D000F0D6F800F056
:1016A000F7F9002801D000F0D1F800232370EFF300
:1016B0000583002B20D1EFF3108272B6104D2868FD
:1016C000002803D00F4C2178002903D0002A13D121
:1016D00062B611E00123237043692B60002B01D017
:1016E000996101E008490B60002A00D162B600252B
:1016F000836845779847257070BDC046090400206F
:101700001C0400202004002018040020EFF31080A7
:1017100072B643425841C0B27047002800D062B64A
:101720007047FFFF10B5FFF7F1FF0C4A1468002C5B
:1017300010D063691360002B02D000229A6101E08F
:10174000074A1360FFF7E9FF002320006377A368CF
:101750009847E8E7FFF7E1FF10BDC0460C04002002
:101760001004002010B5FFF7DDFF10BD164930B59D
:101770000B68002B02D18360C36009E004681A681B
:10178000944207D20025121B8360C560D8601A609E
:10179000086016E002681C689968121B0260002944
:1017A0000CD00C680B00A242F4D28160C968A21A66
:1017B000C160D860C16888601A6002E08160C3605F
:1017C00098600223037530BD1404002070B5174DD6
:1017D0002C68002C19D02368002B02D0013B236019
:1017E00013E0A268002A00D0D360002120692A609B
:1017F000036821751B68220098476368002BE7D0B7
:1018000023602000FFF7B2FFE2E7FFF77FFF00222F
:10181000074B1C681A60FFF780FF002C05D0A568F5
:101820002000FFF7A3FF2C00F7E770BD1404002091
:101830002404002010B5034A136801331360FFF736
:10184000C5FF10BDEC020020704770477047FFFFD6
:101850001B4B1C4A19781C4B082901D1002102E0BE
:101860000A2903D12E311160132206E00C2901D17F
:10187000283100E03C21116012221A60134B1A78C3
:10188000134B002A01D0002200E001221A60114B04
:101890001A78114B012A01D880220CE0042A01D8C1
:1018A000842208E0082A01D8852204E0102A01D801
:1018B000862200E087221A600122084B1A707047C6
:1018C0009400002008B003400CB00340290400201D
:1018D00020B003409500002024B0034028040020DD
:1018E000054B1878054BC0B21A78D3B2984200D293
:1018F0004030C01A7047C046AD0400202B040020C1
:1019000030B5234A13799B0611D5224BD479187828
:1019100019000130E4B200233F2800DC03001E4818
:101920000078834203D01D48C454DBB20B70D178D9
:101930001748C9B24BB2002B17DA03795BB2002B00
:1019400013DA174B174C1D782378DBB29D4202D176
:101950006C23C37009E001333F2B00D900231248E8
:10196000C05CDBB2C0B2D0712370402319420ED0EC
:10197000117919420BD000210C4B19700C4B1B68CC
:101980008B4202D00B49097819722C23D37030BDD9
:1019900000A00640AD0400202B0400206C040020B1
:1019A000B4040020AE0400202C0400202A040020EF
:1019B000B0040020AC040020054B1878054BC0B2E1
:1019C0001A78D3B2984200D24030C01A7047C0464D
:1019D00020050020B604002030B5234A13799B0669
:1019E00011D5224BD479187819000130E4B20023C4
:1019F0003F2800DC03001E480078834203D01D48C6
:101A0000C454DBB20B70D1781748C9B24BB2002B6B
:101A100017DA03795BB2002B13DA174B174C1D78DA
:101A20002378DBB29D4202D16C23C37009E00133FD
:101A3000272B00D900231248C05CDBB2C0B2D071A2
:101A40002370402319420ED0117919420BD0002186
:101A50000C4B19700C4B1B688B4202D00B49097858
:101A600019722C23D37030BD00B006402005002031
:101A7000B6040020DF0400202805002021050020F6
:101A8000B7040020B5040020240500201F05002015
:101A9000054B1878054BC0B21A78D3B2984200D2E1
:101AA0004030C01A7047C0469C0500203105002018
:101AB00030B52C4A13799B0623D52B4BD479187853
:101AC00019000130E4B200233F2800DC030027485E
:101AD0000078834203D02648C454D8B20870254900
:101AE000086800280DD024490978C9B28B4201D377
:101AF0005B1A01E05B1A4033272B02DD1F4B1B787A
:101B00000371D1781748C9B24BB2002B17DA0379A9
:101B10005BB2002B13DA1A4B174C1D782378DBB21B
:101B20009D4202D16C23C37009E00133272B00D9F9
:101B300000231448C05CDBB2C0B2D07123704023D4
:101B400019420ED0117919420BD000210E4B197099
:101B50000E4B1B688B4202D00D49097819722C2359
:101B6000D37030BD00C006409C0500203105002028
:101B70005B0500202C0500209D0500205A05002053
:101B8000A40500203205002030050020A00500201B
:101B90009B05002030B585B072B670224121154BEF
:101BA0001A70154A1170154A3239117080221A7054
:101BB0001A7852B2002AFBDA114B186862B6114B40
:101BC000984201D80A23584301AC0A222100FEF7AB
:101BD00045FE00230C48E15C0500002905D05A00B1
:101BE0008218013351800A2BF5D101335B002B7031
:101BF00005B030BD00000240070002400600024070
:101C0000080002407F969800B402002002B471469A
:101C100049084900095C49008E4402BC7047C0462F
:101C200003B47146490840004900095A49008E44EE
:101C300003BC7047002243088B4274D303098B42D4
:101C40005FD3030A8B4244D3030B8B4228D3030C8C
:101C50008B420DD3FF22090212BA030C8B4202D32E
:101C60001212090265D0030B8B4219D300E0090A56
:101C7000C30B8B4201D3CB03C01A5241830B8B425F
:101C800001D38B03C01A5241430B8B4201D34B0348
:101C9000C01A5241030B8B4201D30B03C01A5241AD
:101CA000C30A8B4201D3CB02C01A5241830A8B4232
:101CB00001D38B02C01A5241430A8B4201D34B021B
:101CC000C01A5241030A8B4201D30B02C01A52417F
:101CD000CDD2C3098B4201D3CB01C01A5241830933
:101CE0008B4201D38B01C01A524143098B4201D36D
:101CF0004B01C01A524103098B4201D30B01C01A98
:101D00005241C3088B4201D3CB00C01A5241830811
:101D10008B4201D38B00C01A524143088B4201D33E
:101D20004B00C01A5241411A00D20146524110469E
:101D30007047FFE701B5002000F006F802BDC0467D
:101D40000029F7D076E770477047C0461C21012371
:101D50001B04984201D3000C10391B0A984201D38E
:101D6000000A08391B09984201D30009043902A26C
:101D7000105C40187047C0460403020201010101D3
:101D800000000000000000000E4B70B500251E0092
:101D90000D4CE41AA410A54204D0AB00F3589847A8
:101DA0000135F8E700F046F9084B00251E00084C05
:101DB000E41AA410A54204D0AB00F35898470135AB
:101DC000F8E770BD402000004020000040200000E7
:101DD00044200000002310B59A4203D0CC5CC454C8
:101DE0000133F9E710BD696E697469616C697A69DC
:101DF0006E67000D0AFFFFFF420000F840A004409C
:101E000001000000420000F844A00440020000006D
:101E1000C00000F800C0044001000000000000F80D
:101E20000490044002000000000000F80890044004
:101E300004000000C00000F81CC004408000000046
:101E4000C00000F810C0044010000000C00000F8FE
:101E500008C0044004000000C00000F80CC00440AA
:101E600008000000800000F80CB0044008000000EA
:101E7000800000F810B0044010000000800000F85E
:101E800018B0044040000000800000F81CB004407E
:101E900080000000800000F814B004402000000022
:101EA000C00000F804C0044002000000800000F8F8
:101EB00000B0044001000000400000F800A0044011
:101EC00001000000400000F804A0044002000000EF
:101ED000400000F80CA0044008000000400000F89A
:101EE00008A0044004000000C00000F814C0044032
:101EF00020000000C00000F818C0044040000000AE
:101F0000800000F804B0044002000000800000F8E7
:101F100008B0044004000000020100F850D0044062
:101F200010000000020100F854D00440200000001E
:101F3000030100F878D004404000000000000000D9
:101F400000000000AD120000A11200009912000074
:101F50009112000089120000811200007912000025
:101F6000151915151515FFFF00010000EA000020E6
:101F70001200000000020000140100208D0000008B
:101F800000220200A1010020210000000021020027
:101F9000580100200900000000220000700200200B
:101FA0003F00000000210000260100200900000081
:101FB00000220100960000205400000000210100D2
:101FC0003F0100200900000000220300C2010020A0
:101FD00055000000002103007801002009000000E6
:101FE0000022040017020020280000000021040045
:101FF000910100200900000000030000B002002051
:102000000000000001030904FC00002000000000A3
:102010000203090440020020000000000303090439
:10202000B4020020000000000000000000000000DA
:1020300000000000F8B5C046F8BC08BC9E467047DA
:04204000390400005F
:04204400F8B5C046E5
:10204800441F000000000000E8030000000000003A
:10205800FFFFFFFF0A0405010902A1018501050927
:102068001901290815002501950875018102050146
:102078000930093109381581257F750895038106CE
:10208800050C0A38021581257F750895018106C05F
:1020980005010902A1018502050109300931150070
:1020A80026FF7F751095028102C012011001000001
:1020B8000040C01682047302010203011803540091
:1020C800650065006E0073007900640075006900A2
:1020D8006E006F0009028D00050100C0320904007E
:1020E800000103010100092111010001223F00073D
:1020F8000583030800010904010001030000000929
:102108002111010001225400070585030800010977
:10211800040200020300000009211101000122212C
:10212800000705810340000107050203200002099A
:1021380004030001030000000921110100012255D8
:1021480000070584030C00020904040001030000D1
:102158000009211101000122280007058603080053
:102168000406C9FF0904A15C7508150026FF00953F
:10217800400975810295200976910295040976B186
:1021880002C005010904A10115002501750195206A
:102198000509190129208102150025073500463B4C
:1021A8000175049501651405010939814205010984
:1021B80001A100150026FF03750A950409300931AD
:1021C800093209358102C0150026FF03750A9502F8
:1021D800093609368102C0050C0901A101750A9565
:1021E8000419002A9C021500269C0281000501752D
:1021F800089503190029B7150026B7008100C0000B
:1022080030034B006500790062006F0061007200C6
:1022180064002F004D006F007500730065002F00EB
:102228004A006F00790073007400690063006B0056
:1022380005010906A10175019508050719E029E7B7
:102248001500250181029501750881039505750121
:102258000508190129059102950175039103950651
:1022680075081500257F05071900297F8100C00022
:10227800040309040C030000000000000000000033
:0C2288000000000000000000000000004A
:00000001FF
