:1000000000180020C1000000E1150000A515000047
:10001000A5150000A5150000A5150000A5150000F8
:10002000A5150000A5150000A5150000E1150000AC
:10003000E1150000A51500007D1900004D1A000013
:10004000E1150000E1150000E1150000E1150000D8
:10005000E1150000E1150000E1150000E1150000C8
:10006000E1150000E1150000E1150000E1150000B8
:1000700019160000F1160000C9170000E115000074
:10008000E1150000E1150000E1150000E115000098
:10009000E1150000E1150000E1150000E115000088
:1000A000B90C0000E1150000E1150000E1150000A9
:1000B000E1150000E1150000E1150000E115000068
:1000C000F8B501F091FA0821474A484B1A60484AAE
:1000D000484B1A60484A494B1A60494B1A780A4201
:1000E00002D01A780A431A702A22464B46481A70E0
:1000F00000234649464C1A188A4203D2E558043375
:100100001560F8E70021434B434A934201D202C3F2
:10011000FBE70023414A424958589446985004331B
:10012000C02BF9D100210326FF2580248A083D4BEE
:100130009200D2180B002F003340DB009F40106864
:100140000131B84307002000984003003B4313608F
:100150002029EBD16246344B1A608A22334B1A7045
:10016000334B663A5A707C321A709E3A9979114232
:10017000FCD0102299791142FCD10C209A792C499B
:100180000240082AFAD1053A0A713D324A71203AF2
:1001900099791142FCD0402299791142FCD025492D
:1001A000254A11602021224A117014399A790A4097
:1001B0000C2AFBD1214A224B1A60224A224B1A6098
:1001C0000022224B1A60224B07321A60214A224B2E
:1001D0001A6062B600F05EFC02F086FA01F00AFADC
:1001E00001F086F9FEE7C046300004F03480044098
:1001F000823F0000388004400100000F3C80044032
:1002000002D0074000E00740300200207C040020BC
:10021000C82900007C040020C807002000F9FF1F47
:100220000000000000E400E008ED00E0005006409F
:10023000004006400000011044800440C000050555
:10024000048004407FBB000014E000E018E000E000
:1002500010E000E00000202020ED00E0FFFFFFFFA5
:10026000FFFFFFFFFFFFFFFFFFFFFFFFFFFFFFFF9E
:10027000FFFFFFFFFFFFFFFFFFFFFFFFFFFFFFFF8E
:10028000FFFFFFFFFFFFFFFFFFFFFFFFFFFFFFFF7E
:10029000FFFFFFFFFFFFFFFFFFFFFFFFFFFFFFFF6E
:1002A000FFFFFFFFFFFFFFFFFFFFFFFFFFFFFFFF5E
:1002B000FFFFFFFFFFFFFFFFFFFFFFFFFFFFFFFF4E
:1002C000FFFFFFFFFFFFFFFFFFFFFFFFFFFFFFFF3E
:1002D000FFFFFFFFFFFFFFFFFFFFFFFFFFFFFFFF2E
:1002E000FFFFFFFFFFFFFFFFFFFFFFFFFFFFFFFF1E
:1002F000FFFFFFFFFFFFFFFFFFFFFFFFFFFFFFFF0E
:10030000FFFFFFFFFFFFFFFFFFFFFFFFFFFFFFFFFD
:10031000FFFFFFFFFFFFFFFFFFFFFFFFFFFFFFFFED
:10032000FFFFFFFFFFFFFFFFFFFFFFFFFFFFFFFFDD
:10033000FFFFFFFFFFFFFFFFFFFFFFFFFFFFFFFFCD
:10034000FFFFFFFFFFFFFFFFFFFFFFFFFFFFFFFFBD
:10035000FFFFFFFFFFFFFFFFFFFFFFFFFFFFFFFFAD
:10036000FFFFFFFFFFFFFFFFFFFFFFFFFFFFFFFF9D
:10037000FFFFFFFFFFFFFFFFFFFFFFFFFFFFFFFF8D
:10038000FFFFFFFFFFFFFFFFFFFFFFFFFFFFFFFF7D
:10039000FFFFFFFFFFFFFFFFFFFFFFFFFFFFFFFF6D
:1003A000FFFFFFFFFFFFFFFFFFFFFFFFFFFFFFFF5D
:1003B000FFFFFFFFFFFFFFFFFFFFFFFFFFFFFFFF4D
:1003C000FFFFFFFFFFFFFFFFFFFFFFFFFFFFFFFF3D
:1003D000FFFFFFFFFFFFFFFFFFFFFFFFFFFFFFFF2D
:1003E000FFFFFFFFFFFFFFFFFFFFFFFFFFFFFFFF1D
:1003F000FFFFFFFFFFFFFFFFFFFFFFFFFFFFFFFF0D
:10040000FFFFFFFFFFFFFFFFFFFFFFFFDEF9FFFF23
:1004100010B5064C2378002B07D1054B002B02D0DA
:10042000044800E000BF0123237010BD7C040020BD
:1004300000000000C8290000084B10B5002B03D0B5
:100440000749084800E000BF07480368002B00D1B7
:1004500010BD064B002BFBD09847F9E700000000C9
:1004600080040020C82900007C0400200000000057
:10047000F8B507000C2403217C4300F097FA012013
:1004800000F0EEFA0B4D012063592E191B7C327AD5
:100490001A420DD10221380000F088FA012000F044
:1004A000DFFA6359307A1B7C034058425841C0B28E
:1004B000F8BDC04670270000094A0A4B516810B5C4
:1004C0000B400949884200D9080000011843074B36
:1004D00050601B78002B01D100F058FF10BDC046C2
:1004E000B00700200FC0FFFFFF030000050600203B
:1004F000094A0A4B516810B50B400949884200D996
:10050000080080031843074B50601B78002B01D173
:1005100000F03CFF10BDC046B0070020FF3F00FFC9
:10052000FF0300000506002010B50F2300281CDB88
:100530000023162819DD0133432816DD0133702806
:1005400013DD01339D2810DD0133CA280DDD013391
:10055000F4280ADD922201335200904205DD522236
:10056000FF320023904200DC07330F220549486820
:10057000904303434B60044B1B78002B01D100F0E8
:1005800005FF10BDB00700200506002010B50121B1
:100590000D2000F00BFA20220024074B1A60074BB5
:1005A0001F3A1A70200001340221E4B200F0FEF973
:1005B000042CF7D110BDC046840000F805060020C9
:1005C000F7B5002500232C00009301933B4E2B012F
:1005D000F618300000F0C6F83000EFB200F0A4F8D2
:1005E000002801D1012C60D90135042DEED1012C58
:1005F00004D0002C2CD0022C03D029E030490098E4
:1006000021E0019E009C301C211C01F087FEFE2190
:100610008905051C01F0FCFA002809D0211C301CBA
:1006200001F042FBFC21890501F064FD24490AE048
:100630002449281C01F0ECFA002802D03C20FF30AD
:1006400008E01F49201C01F055FD01F0EDFF01E01D
:1006500001204042FFF768FF0E20FFF709FF002846
:1006600009D0002000F048F980239B001A1A642A60
:1006700003D8180001E080208000FFF71DFF0F2045
:10068000FFF7F6FE002809D0012000F035F980239D
:100690009B001A1A642A03D8180001E08020800009
:1006A000FFF726FF00F072FEF7BD380001F0DEFF15
:1006B0006B46A60001349851E4B295E798040020F7
:1006C0000000B4420000404010B50C4C0A2200214A
:1006D000200000F015F820000A220121103000F05F
:1006E0000FF820000A220221203000F009F8200033
:1006F0000A220321303000F003F810BD98040020D6
:10070000002337B58360074B04001B6842600193E8
:10071000019B0D000360080000F036F9207365733B
:1007200020003EBDDC040020007B704713B50400B0
:10073000407B00F029F9237B834201D100200EE0A9
:10074000074A216813680093009B5B1A61688B421B
:10075000F4D32073012013680193019B236016BD1D
:10076000DC04002037B50400FFF7E0FF002802D0CA
:100770000023A3600FE0A16800290FD0094A256873
:1007800013680093009B5B1B994207D81368A06015
:100790000193019B23600120A07301E00023A37358
:1007A0003EBDC046DC0400208023F0B51D4A106821
:1007B0001840FCD172B61C4C2378002B30D01B4B58
:1007C0001F681B4B1A681B4BBA181E681A4B9219EC
:1007D0001D681A4B52191968194B52181B68194D8C
:1007E000D21892B25208184B2A4392B21A60174B91
:1007F00017491B68174A9C46174B1B6812680F68FD
:10080000164963440E6816499B180968DB199B1941
:100810005A1893B25B082B43124A9BB213602070A4
:1008200062B6F0BD24B00340D904002038B00340C4
:100830003CB0034040B0034044B0034048B00340E4
:100840004CB003400080FFFF2CB0034058B0034081
:1008500064B0034060B003405CB0034068B0034044
:100860006CB0034030B003401B4B1C4A19781C4B42
:10087000082901D1002102E00A2903D12E3111609B
:10088000132206E00C2901D1283100E03C2111603F
:1008900012221A60134B1A78134B002A01D000223F
:1008A00000E001221A60114B1A78114B012A01D87D
:1008B00080220CE0042A01D8842208E0082A01D80A
:1008C000852204E0102A01D8862200E087221A60DF
:1008D0000122084B1A7070473002002008B0034014
:1008E0000CB00340DB04002020B0034031020020A4
:1008F00024B00340D9040020F8B503000020272BC2
:1009000033D81A4AD45CFF2C2FD0194B1B78834262
:1009100001D0FFF749FF72B610274022154B144251
:1009200005D01A68BA431A603F231C4002E01A68D7
:100930003A431A600123104E104D34602B7062B69A
:1009400072B680223368134208D00D4B186800231A
:100950002B7062B60B4B1B78184106E02B78002BEE
:10096000DBD062B600F0CEFDEAE7F8BD4627000016
:10097000D90400200CB0034000B00340DA0400208A
:1009800010B00340D804002000231A280AD80C33E2
:100990005843054A83581018007A1B7C0340581EA0
:1009A0008341DBB21800704770270000F0B51A28A9
:1009B0002FD80C2217004743164CE5196B68260008
:1009C000012901D0042911D1504334583018257D14
:1009D000027A20202A432275A22252001A601A6845
:1009E000042901D1024313E0824311E038592C7AE3
:1009F000027DA24302758022002908D0022902D17B
:100A00000422FF3204E00022032901D18122520096
:100A10001A60F0BD7027000072B60C4B1A680C4BC0
:100A200018680C4B1B6862B65B0104D532239342F5
:100A30009B415B42C018084B9A1A084B5A43FA2351
:100A40009B005843920D10187047C04618E000E014
:100A5000DC04002004ED00E07FBB000055550100E0
:100A600070B50400FFF7D8FF0500002C0FD0FFF78A
:100A7000D3FF074B401B984206D9013C002C06D0FF
:100A8000FA239B00ED18F2E700F03CFDEFE770BDA4
:100A9000E703000080221E4BD20510B51A608022A9
:100AA000002012061A601B4B1B4918601B4B1C4A86
:100AB0001960282313601B4A1B4C13601B4A1360E8
:100AC0001B4A13601B4A13601B4A136009222260F1
:100AD0001A4C20601A4C21601A4C23601A4C236077
:100AE0001A4C22601A4C20601A4801601A490B60A7
:100AF0001A490B601A4B1A60FFF7B6FE1920FFF770
:100B0000AFFF00F0EBFB1420FF30FFF7A9FF10BD93
:100B100000E100E004800340FFBF000008800340C4
:100B20000C80034014800340008003401C8003407D
:100B3000248003402C800340348003400490034011
:100B4000089003400C900340149003400090034031
:100B500004A0034008A003400CA0034014A00340DD
:100B600000A003400223F0B50A4A0B4E1478C827B0
:100B70002343DB00F518686008480578002D00D194
:100B8000403F09040F43F75001235D405C4005706E
:100B90001470F0BD6405002000F8FF1FF40500206C
:100BA000431E0020062B09D872B6054A9B009B58AD
:100BB000002B02D001305B68FAE762B67047C0468E
:100BC000A8050020F8B572B60123174A08259446F7
:100BD0001E00164964465A1EA25C2A421AD05F01C2
:100BE0007C589A00002C05D1CB1908305860104B66
:100BF000CB5109E03243D2005458002C0AD18B1853
:100C0000083058600B4B8B500B4A1378013B137024
:100C100062B608E00133082BDCD162B60022064B35
:100C20001A7000F009FCF8BDB428000000F8FF1F9E
:100C300088004000C8004000EA050020421E10B5B0
:100C4000062A30D8022380001843174BC0001B1817
:100C500072B6164CA05C03280BD800F02DFF1604CA
:100C60000207052012E0083302200FE008330420B9
:100C70000CE00F48920014580E4B002C01D111507B
:100C800001E09858416099500CE00320A0540A00FC
:100C900008325A60C822180700D4403A098809046B
:100CA0000A431A6062B610BD00F8FF1F000500205D
:100CB000A8050020C4050020F7B5BB4B1C781D001B
:100CC0000423E4B21C421DD0B84B1B78002B16D075
:100CD000B74A1378DBB2002B05D0013BDBB21370AF
:100CE000002B00D100BEB34A1378DBB2002B06D034
:100CF000013BDBB21370002B01D100F0D5FB0422C5
:100D0000A94B1A700822224000D177E2AA4BAB4FC0
:100D10001B78DBB29C08E4001D093C19002D00D0B3
:100D2000FDE1236865689806000F01380C2800D99A
:100D3000F1E100F0CBFEA401A401F001F001F0010B
:100D4000F001F001F001CD01F001F001F0010D0022
:100D50006B689B4E9B49736000230B6001219A488E
:100D60002A682060994C32602170994C92B23B61A4
:100D7000BB610190A2421BD8D020C000824200D3A8
:100D8000F0E081204000824200D1CDE006D8802AE8
:100D900000D1B2E0822A00D1B4E000E18D4B9A424A
:100DA00000D1D0E0FF33FF339A4200D13EE1F6E0BC
:100DB0008948824200D139E111D890231B019A421F
:100DC0001AD0864B9A4200D156E1A13B9A4200D0FC
:100DD000E5E0764B824C1B7823700B0028E18149BB
:100DE0008A4200D1D3E0804B9A4200D11EE17F4B72
:100DF0009A4200D0D3E03FE13C00B2786B4B7D1CBF
:100E00001A702034FF3580222368134203D06068B3
:100E1000083800F011FB0834AC42F4D1002425005E
:100E2000734BE058002805D04368009300F004FBA2
:100E30000098F7E76E4B18516E4BE0506E4BE05840
:100E4000002805D04368009300F0F6FA0098F7E711
:100E5000694B6A4A18516A4BE0506B00D052694B9B
:100E6000E85C0238032807D800F026FE02040204DA
:100E7000002200E001225A5501350434072DCFD15C
:100E800000230124604D2B70604B6149621EE31802
:100E90008A5C9B001A7008231A4220D000F0AEFA38
:100EA0006301002805D0FA1808305060594AFA50FA
:100EB00003E0F8502B7801332B7000F09FFA0122E9
:100EC000A3001343DB00002805D0FA180830506057
:100ED000019AFA5003E0F8502B789B182B700221EE
:100EE0000023A2001143C9007B5003210A438A401A
:100EF0000134BB50082CC7D199E0394C2370637082
:100F0000022395E07F22B0880240072A47D8344C5C
:100F1000920023706370404BD218022312781A4259
:100F200000D185E0217083E07F23B2881A40072A30
:100F300035D87388002B32D10220374992005218DD
:100F40001178814329E07F23B2881A40072A26D8E6
:100F50007388002B23D102202F4992005218117858
:100F600001431AE07288B1882C4B5C68002C16D0C3
:100F70001888904209D15888884206D1120A032A5B
:100F800001D1237854E01B8952E00C33EDE7244A69
:100F90001168244A1160B178234A117047E00F228A
:100FA0001D4B1A7068E0C04680200740F305002002
:100FB00065050020F70500209020074000F8FF1F7E
:100FC000E0050020E0040020C8004000F4050020F7
:100FD0008106000002030000210A00002109000030
:100FE000EB05002021220000212300002120000029
:100FF00048050020E4040020A8050020A0070020E8
:10100000C405002000050020EA05002030C80110BA
:10101000B428000088004000C0200740BC28000021
:10102000DC040020C40700200406002000231C006C
:10103000F5889D4200D91D002E00402D00D9402684
:1010400020003100FFF78EFDA419AD1B03D12F0046
:10105000402E04D010E04027AF4200D92F002000DE
:101060003900FFF77FFDE419ED1B01D1402F03D1BB
:101070007E4B1C607E4B1D8001227E4B4AE07E4EE3
:101080007E4B32889A4211D100237D4AE95CD154CB
:101090000133072BFAD113680735862B02D10F22B3
:1010A000784B1A7000210800FFF75CFD764B326820
:1010B0009A420AD1754B72689A4206D100212A7869
:1010C000734B08001A70FFF74DFD724B236022E04E
:1010D000664F3E68002E13D0654B1C882500402CBF
:1010E00000D9402529003000FFF73CFD641B604B10
:1010F000A4B21C80002C01D1402D00D174193C6099
:10110000A0225D4BD2001988914204D100225A706E
:101110009A78614B1A700122564B1A706AE00822C5
:101120006068013D0838EDB2134037D000F084F913
:101130005A49A80042585A4B002A1CD056684650BB
:101140001100585D0831616003280BD800F0B4FC31
:1011500002040608032104E0022102E0052100E068
:10116000042159550821C8230C4200D1403B128864
:10117000120413433DE0585D032808D800F09CFC9E
:101180003A3A0204002200E001225A5532E00822D5
:101190001440621E944102345C552BE02268110C0D
:1011A0008AB2028000291ED03E4943804360AB00D2
:1011B0005F583D4E002F01D1585001E0F158486072
:1011C0003A496D00F0506B5AD2186A5200F016F985
:1011D000002802D00830606005E0354A20601378AE
:1011E0000133137006E008231C4201D1314B00E0AB
:1011F000284B23600822304B1A705EE50120044220
:101200001ED002231B492B4C0B702C4B2C4E1A70FA
:101210002C4B1C609C602C4C1A61DC600D249A6184
:101220005E602A4B1C70FF23294C23701A4C2B70D4
:101230002270284A13709F22274B1A70087013E0FF
:1012400063B2002B04DA0D22204B1A7080232B701E
:101250000222144204D01E490B78DBB20B702A70B4
:1012600010231C4200D02B70F7BDC046E0040020C4
:10127000E805002094200740E00500202120000020
:10128000BC070020650500202109000202000100C2
:10129000F6050020C800400098200740A80500205F
:1012A0000005002048050020E4040020A0070020DD
:1012B000EA050020880040008020074064050020E7
:1012C0000805002000F8FF1F68050020C020074027
:1012D000882007408C2007408420074010B500F08C
:1012E000E5FA002211001B4BD150981808324160DA
:1012F000E82AF9D180201849C0020A6802430A602E
:101300001A0A1649D2B20A701A0C1549D2B20A70DA
:10131000144A1B0E1370FF23134A00201370134A44
:1013200013491370134A137001220A70124908708E
:1013300012490A70124A116899430B0070210B433D
:10134000136080220F4B52041A6010220E4B1A7049
:1013500010BDC04600F8FF1F348004409C200740A9
:10136000B0200740B4200740802007408820074075
:1013700094200740102007400021074084200740A8
:1013800018E400E000E100E00821074070B5174CC8
:10139000174B1B78002B25D00620FFF701FC154EBC
:1013A000022803D9013C002C13D115E000F026F8E7
:1013B000051EF7D0002434700C260F493200083087
:1013C00001F0B8F906202E802900FFF737FC200035
:1013D0000AE03378002B02D00123337002E000F0E2
:1013E00091F8D5E70120404270BDC0462932000087
:1013F000F3050020F5050020B007002070B572B697
:101400000B4D2C68200000F031FC1D2802DD62B677
:1014100000200CE080231B06C3409C432C6062B676
:1014200048235843034B181800230360436070BDE2
:1014300034020020C0F9FF1F10B504000E484821F7
:10144000201A00F04DFB1D2814D80C4B1B78002BE4
:1014500007D00B4B1B78002B03D02000FFF7B2FB0B
:1014600008E072B680231B06C340064A11680B438E
:10147000136062B610BDC046C0F9FF1FEA05002028
:10148000F305002034020020054B9888054B1A68AC
:10149000002A03D0138852889B1AC0187047C04690
:1014A000A00700200006002070B50E4B1C78E4B2A7
:1014B000002C15D10C4D2968002906D04B8804203A
:1014C0000B80FFF7BBFB2C600AE0FFF797FF011EC4
:1014D00003D00420FFF7B2FB02E00122034B1A7095
:1014E00070BDC046F8050020FC050020F70500206F
:1014F00010B5FFF74BF8FFF763F800F003F8FAE7D1
:101500007047FFFF70B5234C2378002B40D1013387
:101510002370FFF7B9FF002801D0FFF7F1FF00F0BB
:101520006BF8002801D000F09BFA00F0D1F80028F9
:1015300001D000F096FA00F037F9002801D000F051
:1015400091FA00232370EFF30583002B20D1EFF3F2
:10155000108272B6104D2868002803D00F4C2178F5
:10156000002903D0002A13D162B611E001232370B1
:1015700043692B60002B01D0996101E008490B60A1
:10158000002A00D162B60025836845779847257008
:1015900070BDC04606060020940700209807002072
:1015A0009007002070B580258026ED02F6000B4CD8
:1015B00023682B4201D0FFF77FFB2368334201D021
:1015C00000F02AF823681B0501D500F091F8236884
:1015D000DB04ECD500F0F8F8E9E7C04634800440BD
:1015E00010B5FFF7DFFFFFFF0022014B1A607047C5
:1015F000008104407047FFFF054B1878054BC0B2CF
:101600001A78D3B2984200D24030C01A7047C04610
:101610008A0600200806002030B5234A13799B066D
:1016200011D5224BD479187819000130E4B2002387
:101630003F2800DC03001E480078834203D01D4889
:10164000C454DBB20B70D1781748C9B24BB2002B2F
:1016500017DA03795BB2002B13DA174B174C1D789E
:101660002378DBB29D4202D16C23C37009E00133C1
:101670003F2B00D900231248C05CDBB2C0B2D0714E
:101680002370402319420ED0117919420BD000214A
:101690000C4B19700C4B1B688B4202D00B4909781C
:1016A00019722C23D37030BD00A006408A0600209A
:1016B0000806002049060020900600208B06002026
:1016C00009060020070600208C060020890600205D
:1016D000054B1878054BC0B21A78D3B2984200D2A5
:1016E0004030C01A7047C046FC0600209206002019
:1016F00030B5234A13799B0611D5224BD47918783B
:1017000019000130E4B200233F2800DC03001E482A
:101710000078834203D01D48C454DBB20B70D178EB
:101720001748C9B24BB2002B17DA03795BB2002B12
:1017300013DA174B174C1D782378DBB29D4202D188
:101740006C23C37009E00133272B00D90023124812
:10175000C05CDBB2C0B2D0712370402319420ED0FE
:10176000117919420BD000210C4B19700C4B1B68DE
:101770008B4202D00B49097819722C23D37030BDEB
:1017800000B00640FC06002092060020BB060020A8
:1017900004070020FD06002093060020910600208B
:1017A00000070020FB060020054B1878054BC0B24F
:1017B0001A78D3B2984200D24030C01A7047C0465F
:1017C000780700200D07002030B52C4A13799B06BE
:1017D00023D52B4BD479187819000130E4B20023BB
:1017E0003F2800DC030027480078834203D02648C6
:1017F000C454D8B208702549086800280DD024497F
:101800000978C9B28B4201D35B1A01E05B1A4033FD
:10181000272B02DD1F4B1B780371D1781748C9B203
:101820004BB2002B17DA03795BB2002B13DA1A4B99
:10183000174C1D782378DBB29D4202D16C23C37014
:1018400009E00133272B00D900231448C05CDBB228
:10185000C0B2D0712370402319420ED011791942C1
:101860000BD000210E4B19700E4B1B688B4202D01F
:101870000D49097819722C23D37030BD00C0064081
:10188000780700200D0700203707002008070020F8
:101890007907002036070020800700200E0700206F
:1018A0000C0700207C0700207707002030B585B0AA
:1018B00072B670224121154B1A70154A1170154AE3
:1018C0003239117080221A701A7852B2002AFBDA6B
:1018D000114B186862B6114B984201D80A2358433D
:1018E00001AC0A22210000F0BEF800230C48E15CA4
:1018F0000500002905D05A008218013351800A2BB7
:10190000F5D101335B002B7005B030BD0000024003
:101910000700024006000240080002407F9698003F
:1019200064040020EFF3108072B643425841C0B205
:101930007047002800D062B67047FFFF10B5FFF770
:10194000F1FF0C4A1468002C10D063691360002B5F
:1019500002D000229A6101E0074A1360FFF7E9FF15
:10196000002320006377A3689847E8E7FFF7E1FFCB
:1019700010BDC046840700208807002010B5FFF77F
:10198000DDFF10BD164930B50B68002B02D1836016
:10199000C36009E004681A68944207D20025121B4C
:1019A0008360C560D8601A60086016E002681C6831
:1019B0009968121B026000290CD00C680B00A2422F
:1019C000F4D28160C968A21AC160D860C168886019
:1019D0001A6002E08160C36098600223037530BD25
:1019E0008C07002070B5174D2C68002C19D0236887
:1019F000002B02D0013B236013E0A268002A00D034
:101A0000D360002120692A60036821751B682200C9
:101A100098476368002BE7D023602000FFF7B2FFF0
:101A2000E2E7FFF77FFF0022074B1C681A60FFF711
:101A300080FF002C05D0A5682000FFF7A3FF2C0035
:101A4000F7E770BD8C0700209C07002010B5034A03
:101A5000136801331360FFF7C5FF10BDDC040020DD
:101A6000704770477047F8B506000D001700002456
:101A70003900300000F0BAF80B003733DBB2092927
:101A800001D83031CBB230002B55390000F028F8A6
:101A9000061E01D00134EBE72B1958702B005A1B9E
:101AA000944206DD1A78295D19702A550133013CEC
:101AB000F5E72800F8BDFFFF02B471464908490068
:101AC000095C49008E4402BC7047C04603B47146AD
:101AD000490840004900095A49008E4403BC704738
:101AE000002243088B4274D303098B425FD3030A5D
:101AF0008B4244D3030B8B4228D3030C8B420DD370
:101B0000FF22090212BA030C8B4202D312120902FD
:101B100065D0030B8B4219D300E0090AC30B8B423B
:101B200001D3CB03C01A5241830B8B4201D38B03E9
:101B3000C01A5241430B8B4201D34B03C01A52418E
:101B4000030B8B4201D30B03C01A5241C30A8B42D1
:101B500001D3CB02C01A5241830A8B4201D38B02BC
:101B6000C01A5241430A8B4201D34B02C01A524160
:101B7000030A8B4201D30B02C01A5241CDD2C309D2
:101B80008B4201D3CB01C01A524183098B4201D34E
:101B90008B01C01A524143098B4201D34B01C01A39
:101BA000524103098B4201D30B01C01A5241C308B1
:101BB0008B4201D3CB00C01A524183088B4201D320
:101BC0008B00C01A524143088B4201D34B00C01A0C
:101BD0005241411A00D20146524110467047FFE778
:101BE00001B5002000F006F802BDC0460029F7D07C
:101BF00076E770477047C0468446081C6146FFE799
:101C00001FB500F033FA002801D40021C8421FBDDF
:101C100010B500F0BFF94042013010BD10B500F022
:101C200025FA002801DB002010BD012010BDC046B0
:101C300010B500F01BFA002801DD002010BD0120C6
:101C400010BDC04610B500F0CDF9002801DC002021
:101C500010BD012010BDC04610B500F0C3F900282A
:101C600001DA002010BD012010BDC0461C21012357
:101C70001B04984201D3000C10391B0A984201D36F
:101C8000000A08391B09984201D30009043902A24D
:101C9000105C40187047C0460403020201010101B4
:101CA0000000000000000000F8B54A0243024400B2
:101CB0004E00C50F240E28009B09360EC90F92094D
:101CC0008D4259D0A01B002800DC8DE0002E1AD1D7
:101CD000002A00D079E05A0704D00F221A40042AC3
:101CE00000D004335A0138D50134FF2C00D189E0EB
:101CF00028009B015B0AE4B25B02E4055B0A234314
:101D0000C0071843F8BDFF2CE5D08021C9040A4361
:101D10001B2800DD89E016002021C640081A8240F9
:101D2000511E8A4132439B1A5A0114D59B019E09C8
:101D30003000FFF79BFF05388640844265DC041BBA
:101D4000330020200134E340041BA640721E96415C
:101D500000243343BFE75A07BFD1DF082800FF2C18
:101D60002FD1002F00D187E08022D20313003B4304
:101D70005B025B0AFF24BFE7A11B002949DD002E9F
:101D800029D0FF2CA7D08026F60432431B2900DD82
:101D90008DE017002026CF40711A8A40511E8A41DB
:101DA0003A439B185A01D6D50134FF2C64D0012246
:101DB00076491A405B080B4013438CE7031ECAD1D7
:101DC00000207B025B0AE4B296E701380028AAD023
:101DD000FF2C9DD17FE7002A00D17CE70139002943
:101DE000DFD0FF2CD2D176E7002820D1601CC0B212
:101DF000012853DD80279E1AFF0437402FD0D61AC2
:101E00000D0095E72800002376E7614B241A334044
:101E100061E700294DD1611CCEB2012E2FDDFF29D3
:101E20002AD09B185B080C0055E701227BE7002CA9
:101E30001BD1002B5BD0C04300280CD0FF2E7ED0DE
:101E40001B2800DD92E01D002024C540201A83409D
:101E5000581E83412B43D31A34000D0064E7002E33
:101E600000D065E700200024ABE7FF2E67D0802478
:101E7000E40440422343E3E7FF2400233CE7002C33
:101E800061D1002B7ED0002A00D124E79B185A0193
:101E900000D460E73E4A0C0013401CE7002C1ED122
:101EA000002B2FD1002A66D013000D0013E701226A
:101EB00077E7002C1FD1002B5AD0C94300290BD043
:101EC000FF2E50D01B295FDC1F002024CF40611A59
:101ED0008B40591E8B413B439B18340062E7002B1B
:101EE0001CD1002A4AD013000D00FF24F3E6130092
:101EF00034000D00EFE6FF2E35D08024E404494283
:101F00002343DFE7002A00D1E5E68027981AFF0483
:101F1000074000D152E7D31A0D00DCE6FF24002A67
:101F200000D1D8E68020DB08C003034204D0D208E9
:101F3000024201D113000D00DB00FF24CBE61300A9
:101F4000FF240D00C7E6002B0DD0FF24002A00D18E
:101F5000C1E68021DB08C9030B42EDD0D2080A425A
:101F6000EAD11300E8E71300FF24B4E6012372E787
:101F700013003400AFE60027002022E7802700206E
:101F8000FF03F1E61300A6E60123A5E7FFFFFF7DAF
:101F9000FFFFFFFB430270B542004C005D0AC30F18
:101FA0004802120E460A240EC90FFF2A0FD0FF2C3A
:101FB00011D00120A24200D070BDB542FCD18B42AD
:101FC0000DD0002AF8D12800431E9841F4E70120E3
:101FD000002DF1D1EBE70120002EEDD1E9E7002043
:101FE000EAE7C0464302F0B542005D0AC30F48026B
:101FF000440A4800120E000EC90FFF2A1FD0FF2806
:1020000022D0002A09D16E426E4100280FD1002C47
:102010000DD10020002D09D005E0002801D1002CB1
:1020200001D08B4213D0584201231843F0BD002E3B
:10203000F7D048424141012049420843F6E7002DCC
:10204000DDD002204042F1E7002CDAD0F9E78242ED
:10205000E9DC04DBA542E6D80020A542E6D25842DE
:10206000434101205B421843E0E7C0464302F0B51C
:1020700042004C005E0AC30F4802120E450A240EAD
:10208000C90FFF2A17D0FF2C19D0002A0BD170429C
:102090007041002C17D0002807D048424141012050
:1020A00049420843F0BD002C13D08B4214D0584253
:1020B00001231843F6E70220002EF3D1E3E70220C4
:1020C000002DEFD1E1E7002DE5D10020002EE9D071
:1020D000EDE7002DE9D1EAE7A242E8DC04DBAE42FD
:1020E000E5D80020AE42DDD25842434101205B4298
:1020F0001843D7E7F0B557464E4645464300E0B48F
:1021000046028846760A1F0EC40F002F47D0FF2FC5
:1021100025D0002380259A469946F600ED042E43EB
:102120007F3F434642465D02D20F5B006D0A1B0EA5
:10213000904640D0FF2B39D080220020ED00D20401
:1021400015437F3BFB1842465746591C62408C465C
:1021500007430F2F5CD86F49BF00C9598F46002E27
:1021600045D108239A46063B9946DAE742460228BB
:102170002DD0032800D1C3E0012800D0A2E0002523
:1021800000260240D4B27602ED05760A2E43E4071B
:10219000264330001CBC90469946A246F0BD002E56
:1021A0001AD104239A46033B9946BAE72A00511EE6
:1021B0008A41901CC6E70120002DC3D02800FFF7FC
:1021C00055FD431F76309D4043420020BAE701246D
:1021D000FF2514400026D6E73000FFF747FD431FD8
:1021E0009E400023763047429A46994699E70C2351
:1021F0009A46093B994694E780260024F603FF257A
:10220000C1E735004846B2E7350022004846AEE750
:102210002904090C0800370C3604360C2C0C7943C1
:10222000704367437443060C64183619B14203D9EE
:1022300080214902884647440004000C31040918F3
:102240008D01681E8541890E2943350CED19AD01BC
:102250000D43290104D5012369081D4063460D4340
:1022600019007F31002925DD680704D00F202840A0
:10227000042800D00435280103D5274980330D40B8
:102280001900FE29A3DC0124AD016E0A1440CDB271
:1022900079E78020C003064207D0054205D12843D4
:1022A0004602760A4446FF256DE706437602760A23
:1022B000FF2568E70124611A1B2905DD144000256C
:1022C000002660E76346CBE72E002023CE40591A54
:1022D0008D406B1E9D412E43730704D00F23334066
:1022E000042B00D00436730104D5012401251440C9
:1022F000002648E70124B601760A1440002542E78B
:1023000080260124F6032E437602760A1440FF2528
:1023100039E7C04670290000FFFFFFF7F8B54A0211
:102320004E0043024400240EC50F9B09360EC90F10
:102330009209FF2E00D183E001204140A01BA94259
:102340005CD0002800DC95E0002E1CD1002A00D0D3
:1023500081E05A0704D00F221A40042A00D0043327
:102360005A013BD50134FF2C00D191E001209B01A3
:102370005B0AE4B205405B02E4055B0AED07234318
:102380002B431800F8BDFF2CE3D08021C9040A4379
:102390001B2800DD90E016002021C640081A82406C
:1023A000511E8A4132439B1A5A0115D59B019E0941
:1023B0003000FFF75BFC0538864084426CDC041B70
:1023C000330020200134E340041BA640721E9641D6
:1023D00000243343BDE70D005A07BCD1DF080123B9
:1023E0001D40FF2C33D1002F00D190E08022D2037A
:1023F00013003B435B025B0AFF24BCE700284FDD70
:10240000002E2ED0FF2CA4D08025ED042A431B28BB
:1024100000DD97E016002025C640281A8240501E95
:10242000824132439B185A01D5D50134FF2C6DD01F
:1024300001227B481A405B08034013430D0088E7E4
:10244000002A00D07AE777E7031EC5D100257B027A
:102450005B0AE4B28FE701380028A4D0FF2C97D1A3
:1024600077E7002A00D174E701380028DAD0FF2C82
:10247000CDD16EE7002821D1601CC0B2012858DD03
:1024800080279E1AFF0437402FD0D61A0D008FE701
:1024900001231D4000236EE7624B241A334058E7A6
:1024A000002851D1601CC6B2012E33DDFF282DD08B
:1024B0009B185B0804004CE7012274E7002C1AD03B
:1024C000FF2E1FD08024E404404223431B2800DD5C
:1024D00096E01D002024C540201A8340581E8341E9
:1024E0002B43D31A34000D005EE7002E00D05FE7C7
:1024F00000250024ABE7002B44D0C0430028F0D0D7
:10250000FF2EE3D11300FF240D0022E70D00FF246E
:10251000002330E7002C5DD1002B7DD0002A00D1B4
:1025200017E79B185A0100D456E73E4A04001340AF
:102530000FE7002C1ED1002B2FD1002A65D01300ED
:102540000D0006E701226DE7002C1FD1002B59D0AA
:10255000C04300280BD0FF2E4FD01B285EDC1D008F
:102560002024C540201A8340581E83412B439B18CA
:10257000340058E7002B1CD1002A49D013000D006D
:10258000FF24E6E6130034000D00E2E6FF2E34D00F
:102590008024E40440422343DFE7002A00D1D8E648
:1025A0008027981AFF04074000D14DE7D31A0D0089
:1025B000CFE6FF24002A00D1CBE68020DB08C00351
:1025C000034204D0D208024201D113000D00DB0007
:1025D000FF24BEE6002B10D0FF24002A00D1B8E66D
:1025E0008020DB08C003034203D0D208024200D19E
:1025F0001300DB000D00FF24ABE61300FF24A8E668
:1026000001236EE713003400A3E6002700251EE730
:1026100080270025FF03E9E613009AE60123A6E7D9
:10262000FFFFFF7DFFFFFFFB4302590A4300C20F7C
:102630001B0E00207E2B0EDD9D2B0DDC8020000468
:102640000143952B0BDC9620C31AD9400B0058424E
:10265000002A00D118007047034BD018FBE7963BC7
:1026600099400B00F3E7C046FFFFFF7F70B5041EE3
:1026700028D0FFF7FBFA9E231B1A962B0ADC962222
:10268000D21A94406202520AD8B25202520AC005CB
:10269000104370BD992B18DC9922D21A9440114A2C
:1026A0002240610704D00F210C40042C00D00432DA
:1026B000510103D50B4B1A409F231B1A9201520A5A
:1026C000D8B2E2E700200022DFE705222500121A37
:1026D000B921D5402200C91A8A40541EA2412C00BB
:1026E0001443DCE7FFFFFFFB0E4B70B500251E0017
:1026F0000D4CE41AA410A54204D0AB00F35898473F
:102700000135F8E700F054F9084B00251E00084C8D
:10271000E41AA410A54204D0AB00F3589847013541
:10272000F8E770BDBC290000BC290000BC290000EE
:10273000C4290000002310B59A4203D0CC5CC454D5
:102740000133F9E710BD050E08090D0C06070F0B44
:10275000004417FF050E08090D0C06070F0B004477
:1027600017FFFFFFFFFFFFFFFFFFFFFF1A1BFFFF2A
:10277000420000F840A0044001000000420000F8C0
:1027800044A0044002000000C00000F800C0044063
:1027900001000000000000F8049004400200000066
:1027A000000000F80890044004000000C00000F899
:1027B0001CC0044080000000C00000F810C00440AD
:1027C00010000000C00000F808C004400400000031
:1027D000C00000F80CC0044008000000800000F8B1
:1027E0000CB0044008000000800000F810B0044065
:1027F00010000000800000F818B004404000000005
:10280000800000F81CB0044080000000800000F848
:1028100014B0044020000000C00000F804C00440D0
:1028200002000000800000F800B004400100000039
:10283000400000F800A0044001000000400000F843
:1028400004A0044002000000400000F80CA0044076
:1028500008000000400000F808A004400400000048
:10286000C00000F814C0044020000000C00000F8C0
:1028700018C0044040000000800000F804B004408C
:1028800002000000800000F808B0044004000000CE
:10289000020100F850D0044010000000020100F8CE
:1028A00054D0044020000000030100F878D0044018
:1028B0004000000015151915151515FF0001000041
:1028C0008C0200201200000000020000B60200206E
:1028D000AF00000000220200650300203F0000005E
:1028E000002102000A03002009000000002203006A
:1028F00038020020540000000021030023030020C0
:102900000900000000220400A4030020550000007C
:10291000002104003C030020090000000022050003
:10292000F9030020280000000021050055030020C5
:102930000900000000030000600400200000000007
:10294000010309049E0200200000000002030904A4
:102950002204002000000000030309046404002096
:102960000000000000000000000000000000000067
:10297000102200006E2100006E2100006C2100007A
:102980000222000002220000F82100006C21000059
:1029900002220000F8210000022200006C21000049
:1029A00008220000082200000822000092220000F5
:1029B000F8B5C046F8BC08BC9E4670473904000014
:0429C000C906000044
:0429C400F8B5C0465C
:1029C8000A040000FFFFFFFF05010902A1018501BC
:1029D80005091901290815002501950875018102C5
:1029E80005010930093109381581257F75089503D6
:1029F8008106050C0A38021581257F750895018125
:102A080006C005010902A101850205010930093145
:102A1800150026FF7F751095028102C01201100172
:102A2800EF020140C0168704730201020301180374
:102A38005400650065006E0073007900640075003D
:102A480069006E006F000902AF00060100C032087D
:102A58000B00020202010409040000010202010045
:102A6800052400100105240101010424020605249F
:102A78000600010705820310004009040100020A4C
:102A8800000000070503024000000705840240001B
:102A980000090402000103010100092111010001DC
:102AA800223F000705810308000109040300010310
:102AB80000000009211101000122540007058503C7
:102AC80008000209040400010300000009211101A3
:102AD8000001225500070586030C000109040500C2
:102AE8000103000000092111010001222800070547
:102AF800870308000405010906A101750195080569
:102B08000719E029E715002501810295017508815B
:102B180003950575010508190129059102950175A7
:102B2800039103950675081500257F0507190029E7
:102B38007F8100C005010904A10115002501750167
:102B4800952005091901292081021500250735005E
:102B5800463B017504950165140501093981420553
:102B6800010901A100150026FF03750A9504093023
:102B78000931093209358102C0150026FF03750A9B
:102B88009502093609368102C0050C0901A10175B3
:102B98000A950419002A9C021500269C028100054A
:102BA8000175089503190029B7150026B70081009B
:102BB800C0003E03530065007200690061006C00AC
:102BC8002F004B006500790062006F006100720001
:102BD80064002F004D006F007500730065002F0022
:102BE8004A006F00790073007400690063006B008D
:102BF800040309040C0300000000000000000000AA
:0C2C0800000000000000000000000000C0
:00000001FF
