:1000000000180020C1000000750800003908000039
:1000100039080000390800003908000039080000DC
:100020003908000039080000390800007508000090
:100030007508000039080000E5170000B518000039
:1000400075080000750800007508000075080000BC
:1000500075080000750800007508000075080000AC
:10006000750800007508000075080000750800009C
:1000700081190000591A0000311B000075080000AA
:10008000750800007508000075080000750800007C
:10009000750800007508000075080000750800006C
:1000A0000D0C0000750800007508000075080000C0
:1000B000750800007508000075080000750800004C
:1000C000F8B500F077FB0821474A484B1A60484AC8
:1000D000484B1A60484A494B1A60494B1A780A4201
:1000E00002D01A780A431A702A22464B46481A70E0
:1000F00000234649464C1A188A4203D2E558043375
:100100001560F8E70021434B434A934201D202C3F2
:10011000FBE70023414A424958589446985004331B
:10012000C02BF9D100210326FF2580248A083D4BEE
:100130009200D2180B002F003340DB009F40106864
:100140000131B84307002000984003003B4313608F
:100150002029EBD16246344B1A608A22334B1A7045
:10016000334B663A5A707C321A709E3A9979114232
:10017000FCD0102299791142FCD10C209A792C499B
:100180000240082AFAD1053A0A713D324A71203AF2
:1001900099791142FCD0402299791142FCD025492D
:1001A000254A11602021224A117014399A790A4097
:1001B0000C2AFBD1214A224B1A60224A224B1A6098
:1001C0000022224B1A60224B07321A60214A224B2E
:1001D0001A6062B600F0EEFB01F016FE00F04DFB77
:1001E00000F022FBFEE7C046300004F034800440FB
:1001F000823F0000388004400100000F3C80044032
:1002000002D0074000E007403002002088040020B0
:10021000CC200000880400209807002000F9FF1F70
:100220000000000000E400E008ED00E0005006409F
:10023000004006400000011044800440C000050555
:10024000048004407FBB000014E000E018E000E000
:1002500010E000E00000202020ED00E0FFFFFFFFA5
:10026000FFFFFFFFFFFFFFFFFFFFFFFFFFFFFFFF9E
:10027000FFFFFFFFFFFFFFFFFFFFFFFFFFFFFFFF8E
:10028000FFFFFFFFFFFFFFFFFFFFFFFFFFFFFFFF7E
:10029000FFFFFFFFFFFFFFFFFFFFFFFFFFFFFFFF6E
:1002A000FFFFFFFFFFFFFFFFFFFFFFFFFFFFFFFF5E
:1002B000FFFFFFFFFFFFFFFFFFFFFFFFFFFFFFFF4E
:1002C000FFFFFFFFFFFFFFFFFFFFFFFFFFFFFFFF3E
:1002D000FFFFFFFFFFFFFFFFFFFFFFFFFFFFFFFF2E
:1002E000FFFFFFFFFFFFFFFFFFFFFFFFFFFFFFFF1E
:1002F000FFFFFFFFFFFFFFFFFFFFFFFFFFFFFFFF0E
:10030000FFFFFFFFFFFFFFFFFFFFFFFFFFFFFFFFFD
:10031000FFFFFFFFFFFFFFFFFFFFFFFFFFFFFFFFED
:10032000FFFFFFFFFFFFFFFFFFFFFFFFFFFFFFFFDD
:10033000FFFFFFFFFFFFFFFFFFFFFFFFFFFFFFFFCD
:10034000FFFFFFFFFFFFFFFFFFFFFFFFFFFFFFFFBD
:10035000FFFFFFFFFFFFFFFFFFFFFFFFFFFFFFFFAD
:10036000FFFFFFFFFFFFFFFFFFFFFFFFFFFFFFFF9D
:10037000FFFFFFFFFFFFFFFFFFFFFFFFFFFFFFFF8D
:10038000FFFFFFFFFFFFFFFFFFFFFFFFFFFFFFFF7D
:10039000FFFFFFFFFFFFFFFFFFFFFFFFFFFFFFFF6D
:1003A000FFFFFFFFFFFFFFFFFFFFFFFFFFFFFFFF5D
:1003B000FFFFFFFFFFFFFFFFFFFFFFFFFFFFFFFF4D
:1003C000FFFFFFFFFFFFFFFFFFFFFFFFFFFFFFFF3D
:1003D000FFFFFFFFFFFFFFFFFFFFFFFFFFFFFFFF2D
:1003E000FFFFFFFFFFFFFFFFFFFFFFFFFFFFFFFF1D
:1003F000FFFFFFFFFFFFFFFFFFFFFFFFFFFFFFFF0D
:10040000FFFFFFFFFFFFFFFFFFFFFFFFDEF9FFFF23
:1004100010B5064C2378002B07D1054B002B02D0DA
:10042000044800E000BF0123237010BD88040020B1
:1004300000000000CC200000084B10B5002B03D0BA
:100440000749084800E000BF07480368002B00D1B7
:1004500010BD064B002BFBD09847F9E700000000C9
:100460008C040020CC200000880400200000000044
:1004700070B5050008000C0001F0F5FC2B680200C7
:1004800021005B68280098470400280000F0BAF9B2
:10049000001970BD10B50B4C0B492000FFF7E8FFA9
:1004A00001210D2000F012FA2022084B0A201A60C8
:1004B000074B1F3A1A7000F063FA06492000FFF755
:1004C000D7FF10BD30020020741E0000840000F829
:1004D000C1050020811E0000F7B580240421002002
:1004E00000F0F4F9534B64021C60C046C046C0469D
:1004F000C046C046C046C046C046C046C046C046CC
:10050000C046C046C046C046C046C046C046C046BB
:10051000C046C046C046C046C046C046C046C046AB
:10052000C046C046C046C046C046C046C046C0469B
:10053000C046C046C046C046C046C046C046C0468B
:10054000C046C046C046C046C046C046C046C0467B
:10055000C046C046C046C046C046C046C046C0466B
:10056000C046C046C046C046C046C046C046C0465B
:10057000C046C046C046C046C046C046C046C0464B
:10058000C046C046C046C046C046C046C046C0463B
:10059000C046C046C046C046C046C046C046C0462B
:1005A000C046C046C046C046C046C046C046C0461B
:1005B000C046C046C046C046C046C046C046C0460B
:1005C000C046C046C046C046C046C046C046C046FB
:1005D000C046C046C046C046C046C046C046C046EB
:1005E000C046C046C046C046C046C046C046C046DB
:1005F000C046C046C046C046C046C046C046C046CB
:10060000C04600210C4B08001C6000F05FF90B4B4A
:100610000B481A6800921A000099802305685B0253
:10062000074E25420ED013680193019B5B1A012BE4
:10063000F3D9ABE0480000F8440000F8A80400201B
:10064000500000F832681A42FCD0524D3221280086
:1006500000F0B2F872B60022802114000120490295
:1006600033680B42FCD1C046C046C046C046C046B7
:10067000C046C046C046C046C046C046C046C0464A
:10068000C046C046C046C046C046C046C046C0463A
:10069000C046C046C046C046C046C046C046C0462A
:1006A000C046C046C046C046C046C046C046C0461A
:1006B000C046C046C046C046C046C046C046C0460A
:1006C000C046C046C046C046C046C046C046C046FA
:1006D000C046C046C046C046C046C046C046C046EA
:1006E000C046C046C046C046C046C046C046C046DA
:1006F000C046C046C046C046C046C046C046C046CA
:10070000C046C046C046C046C046C046C046C046B9
:10071000C046C046C046C046C046C046C046C046A9
:10072000C0461D4B1B681B0C034093401C433368A1
:100730000B42FCD00132202A00D091E762B628009B
:1007400000F056F8154E164B7168164A1940A3036F
:100750001340154F0B4373603B78002B01D100F021
:10076000E3FD124BA4091C407268114B13401C435B
:100770003B787460002B01D100F0D6FD280000F01A
:1007800037F800F0D1FD012000F0FAF8014800F040
:100790002FF8F7BDA4040020500000F880070020C7
:1007A000FF3F00FF00C0FF00C1050020F03F000038
:1007B0000FC0FFFF7047FFFF4A1E0C4BFF2A01D9F5
:1007C0000C2203E00822202900DC04221A601A68A7
:1007D0000C2313400C2B05D02020082B04D18020A3
:1007E000400001E08020C0007047C0460081044006
:1007F00072B65522024B1A6092181A6062B67047A0
:100800000481044037B5022504002A00054901A8E7
:1008100001F020FB23682A005B6801A920009847AB
:100820003EBDC0468C1E000010B5FFF733FEFFF73B
:1008300053FE00F05BFFFAE770B580258026ED02DD
:10084000F6000B4C23682B4201D000F0DFF923683F
:10085000334201D001F094F823681B0501D501F063
:10086000FBF82368DB04ECD501F062F9E9E7C04648
:100870003480044010B5FFF7DFFF7047F8B506007D
:100880000D00170000243900300001F099FA0B0028
:100890003733DBB2092901D83031CBB230002B55C8
:1008A000390001F007FA061E01D00134EBE72B19DD
:1008B00058702B005A1B944206DD1A78295D197076
:1008C0002A550133013CF5E72800F8BDF0B51A2898
:1008D0002FD80C2217004743164CE5196B682600E9
:1008E000012901D0042911D1504334583018257DF5
:1008F000027A20202A432275A22252001A601A6826
:10090000042901D1024313E0824311E038592C7AC3
:10091000027DA24302758022002908D0022902D15B
:100920000422FF3204E00022032901D18122520077
:100930001A60F0BD901E000072B60C4B1A680C4B8A
:1009400018680C4B1B6862B65B0104D532239342D6
:100950009B415B42C018084B9A1A084B5A43FA2332
:100960009B005843920D10187047C04618E000E0F5
:10097000A804002004ED00E07FBB000055550100F5
:1009800070B50400FFF7D8FF0500002C0FD0FFF76B
:10099000D3FF074B401B984206D9013C002C06D0E0
:1009A000FA239B00ED18F2E700F0A0FEEFE770BD20
:1009B000E703000080221E4BD20510B51A6080228A
:1009C000002012061A601B4B1B4918601B4B1C4A67
:1009D0001960282313601B4A1B4C13601B4A1360C9
:1009E0001B4A13601B4A13601B4A136009222260D2
:1009F0001A4C20601A4C21601A4C23601A4C236058
:100A00001A4C22601A4C20601A4801601A490B6087
:100A10001A490B601A4B1A6000F05AFF1920FFF7B1
:100A2000AFFF00F005FC1420FF30FFF7A9FF10BD59
:100A300000E100E004800340FFBF000008800340A5
:100A40000C80034014800340008003401C8003405E
:100A5000248003402C8003403480034004900340F2
:100A6000089003400C900340149003400090034012
:100A700004A0034008A003400CA0034014A00340BE
:100A800000A003400223F0B50A4A0B4E1478C82791
:100A90002343DB00F518686008480578002D00D175
:100AA000403F09040F43F75001235D405C4005704F
:100AB0001470F0BD3005002000F8FF1FC0050020B5
:100AC000431E10B50020062B0ED872B6074A9900B7
:100AD0008858002807D044685B008C50044904887B
:100AE0005A5A121B5A5262B610BDC0461405002055
:100AF00072070020431E0020062B09D872B6054A53
:100B00009B009B58002B02D001305B68FAE762B66D
:100B10007047C04674050020F8B572B60123174A25
:100B2000082594461E00164964465A1EA25C2A42B5
:100B30001AD05F017C589A00002C05D1CB190830DF
:100B40005860104BCB5109E03243D2005458002C6E
:100B50000AD18B18083058600B4B8B500B4A137816
:100B6000013B137062B608E00133082BDCD162B69A
:100B70000022064B1A7000F02DFCF8BDFC1F00008F
:100B800000F8FF1F88004000C8004000B6050020A4
:100B9000421E10B5062A30D8022380001843174B96
:100BA000C0001B1872B6164CA05C03280BD801F0CD
:100BB0006DF816040207052012E0083302200FE04A
:100BC000083304200CE00F48920014580E4B002C00
:100BD00001D1115001E09858416099500CE0032078
:100BE000A0540A0008325A60C822180700D4403ABC
:100BF000098809040A431A6062B610BD00F8FF1F95
:100C0000CC0400207405002090050020F7B5BB4BF4
:100C10001C781D000423E4B21C421DD0B84B1B7885
:100C2000002B16D0B74A1378DBB2002B05D0013B5E
:100C3000DBB21370002B00D100BEB34A1378DBB2D5
:100C4000002B06D0013BDBB21370002B01D100F06A
:100C500029FD0422A94B1A700822224000D177E214
:100C6000AA4BAB4F1B78DBB29C08E4001D093C1972
:100C7000002D00D0FDE1236865689806000F01385B
:100C80000C2800D9F1E101F00BF8A401A401F00156
:100C9000F001F001F001F001F001CD01F001F001EF
:100CA000F0010D006B689B4E9B49736000230B6045
:100CB00001219A482A682060994C32602170994C31
:100CC00092B23B61BB610190A2421BD8D020C00010
:100CD000824200D3F0E081204000824200D1CDE08A
:100CE00006D8802A00D1B2E0822A00D1B4E000E127
:100CF0008D4B9A4200D1D0E0FF33FF339A4200D1AE
:100D00003EE1F6E08948824200D139E111D89023D2
:100D10001B019A421AD0864B9A4200D156E1A13B60
:100D20009A4200D0E5E0764B824C1B7823700B0092
:100D300028E181498A4200D1D3E0804B9A4200D118
:100D40001EE17F4B9A4200D0D3E03FE13C00B278F5
:100D50006B4B7D1C1A702034FF35802223681342B0
:100D600003D06068083800F035FB0834AC42F4D199
:100D700000242500734BE058002805D043680093F9
:100D800000F028FB0098F7E76E4B18516E4BE050CF
:100D90006E4BE058002805D04368009300F01AFB22
:100DA0000098F7E7694B6A4A18516A4BE0506B00AC
:100DB000D052694BE85C0238032807D800F066FF80
:100DC00002040204002200E001225A5501350434D5
:100DD000072DCFD100230124604D2B70604B61495A
:100DE000621EE3188A5C9B001A7008231A4220D006
:100DF00000F0D2FA6301002805D0FA1808305060DC
:100E0000594AFA5003E0F8502B7801332B7000F068
:100E1000C3FA0122A3001343DB00002805D0FA180F
:100E200008305060019AFA5003E0F8502B789B1874
:100E30002B7002210023A2001143C9007B50032123
:100E40000A438A400134BB50082CC7D199E0394C81
:100E500023706370022395E07F22B0880240072A46
:100E600047D8344C920023706370404BD218022351
:100E700012781A4200D185E0217083E07F23B28886
:100E80001A40072A35D87388002B32D102203749FF
:100E9000920052181178814329E07F23B2881A40CA
:100EA000072A26D87388002B23D102202F499200CD
:100EB0005218117801431AE07288B1882C4B5C6893
:100EC000002C16D01888904209D15888884206D143
:100ED000120A032A01D1237854E01B8952E00C3313
:100EE000EDE7244A1168244A1160B178234A117051
:100EF00047E00F221D4B1A7068E0C0468020074073
:100F0000BF05002031050020C405002090200740C7
:100F100000F8FF1FAC050020AC040020C800400012
:100F2000C00500208106000002030000210A000025
:100F300021090000B7050020212200002123000024
:100F40002120000014050020B004002074050020BA
:100F50007207002090050020CC040020B605002078
:100F600030C80110FC1F000088004000C02007406E
:100F700004200000A804002094070020D4050020CD
:100F800000231C00F5889D4200D91D002E00402D35
:100F900000D9402620003100FFF774FDA419AD1BD5
:100FA00003D12F00402E04D010E04027AF4200D9DB
:100FB0002F0020003900FFF765FDE419ED1B01D17A
:100FC000402F03D17E4B1C607E4B1D8001227E4B47
:100FD0004AE07E4E7E4B32889A4211D100237D4AF0
:100FE000E95CD1540133072BFAD113680735862BFE
:100FF00002D10F22784B1A7000210800FFF742FD42
:10100000764B32689A420AD1754B72689A4206D181
:1010100000212A78734B08001A70FFF733FD724BDA
:10102000236022E0664F3E68002E13D0654B1C887B
:101030002500402C00D9402529003000FFF722FD73
:10104000641B604BA4B21C80002C01D1402D00D148
:1010500074193C60A0225D4BD2001988914204D1E2
:1010600000225A709A78614B1A700122564B1A70FE
:101070006AE008226068013D0838EDB2134037D0BD
:1010800000F0A8F95A49A80042585A4B002A1CD02F
:10109000566846501100585D0831616003280BD82E
:1010A00000F0F4FD02040608032104E0022102E03E
:1010B000052100E0042159550821C8230C4200D124
:1010C000403B1288120413433DE0585D032808D8C2
:1010D00000F0DCFD3A3A0204002200E001225A55F9
:1010E00032E008221440621E944102345C552BE029
:1010F0002268110C8AB2028000291ED03E4943802A
:101100004360AB005F583D4E002F01D1585001E0C5
:10111000F15848603A496D00F0506B5AD2186A5243
:1011200000F03AF9002802D00830606005E0354A46
:10113000206013780133137006E008231C4201D1AC
:10114000314B00E0284B23600822304B1A705EE5DB
:10115000012004421ED002231B492B4C0B702C4B48
:101160002C4E1A702C4B1C609C602C4C1A61DC605D
:101170000D249A615E602A4B1C70FF23294C23705A
:101180001A4C2B702270284A13709F22274B1A701A
:10119000087013E063B2002B04DA0D22204B1A70A2
:1011A00080232B700222144204D01E490B78DBB23C
:1011B0000B702A7010231C4200D02B70F7BDC04664
:1011C000AC040020B405002094200740AC050020AA
:1011D000212000008C070020310500202109000299
:1011E00002000100C3050020C8004000982007400D
:1011F00074050020CC04002014050020B004002059
:1012000072070020B60500208800400080200740BB
:1012100030050020D404002000F8FF1F3405002012
:10122000C0200740882007408C20074084200740CA
:1012300010B500F0EFFC002211001B4BD1509818A4
:1012400008324160E82AF9D180201849C0020A68B2
:1012500002430A601A0A1649D2B20A701A0C1549DA
:10126000D2B20A70144A1B0E1370FF23134A0020D7
:101270001370134A13491370134A137001220A7032
:101280001249087012490A70124A116899430B00FA
:1012900070210B43136080220F4B52041A601022FE
:1012A0000E4B1A7010BDC04600F8FF1F348004407A
:1012B0009C200740B0200740B42007408020074012
:1012C0008820074094200740102007400021074055
:1012D0008420074018E400E000E100E00821074016
:1012E00010B500F0F7F810BD10B500F0C3F810BD50
:1012F00010B500F097F810BD10B500F0DBF810BD88
:1013000010B500F0A1F910BD10B500F077F910BDCF
:1013100010B50800110000F0F7F810BD10B5080076
:1013200000F062F910BD704770B5174C174B1B7871
:10133000002B25D00620FFF7DDFB154E022803D930
:10134000013C002C13D115E000F026F8051EF7D063
:10135000002434700C260F493200083000F07AFD6A
:1013600006202E802900FFF713FC20000AE03378C6
:10137000002B02D00123337002E000F0B7F9D5E76B
:101380000120404270BDC04629320000BF05002048
:10139000C20500208007002070B572B60B4D2C6886
:1013A000200000F013FD1D2802DD62B600200CE0D5
:1013B00080231B06C3409C432C6062B648235843DD
:1013C000034B181800230360436070BD40020020E7
:1013D000C0F9FF1F10B504000E484821201A00F084
:1013E00069FC1D2814D80C4B1B78002B07D00B4B25
:1013F0001B78002B03D02000FFF78EFB08E072B6AD
:1014000080231B06C340064A11680B43136062B673
:1014100010BDC046C0F9FF1FB6050020BF05002063
:101420004002002070B5114D2B68002B0CD02868AD
:1014300043885A1CC3181C7A03889A4212D3FFF7B8
:10144000C9FF00232B600EE0094B1B78002B02D153
:101450000120404208E00320FFF732FB286000280B
:10146000E5D1F5E74280200070BDC046D0050020E0
:10147000BF05002010B50D4C2368002B03D0226857
:10148000002A0ED103E00A4B1B78002B02D1012069
:10149000404209E00320FFF713FB20600028EED153
:1014A000F5E75388D318187A10BDC046D005002040
:1014B000BF050020054B9888054B1A68002A03D009
:1014C000138852889B1AC0187047C04672070020C4
:1014D000D005002010B50A4B1B78002B0FD0094C0B
:1014E0002068002803D0FFF775FF00232360032046
:1014F000FFF7E6FA002802D0FFF76CFFF7E710BD10
:10150000BF050020D0050020314A0123F0B50C00B2
:10151000170085B00190029113700393002C53D0F3
:101520002C4D2B68002B25D12B4E2C4B1B78DBB27E
:10153000002B01D13B7017E00420FFF7DBFA0728EE
:1015400009D86B461B7B3B70FFF726FF214B1860C9
:1015500000280FD13870013E214B002E02D01A789E
:10156000002A04D001221A70012040422EE000F02F
:10157000BDF8DAE700221A4B29681A7040234A881E
:10158000981A2300844200D903000800083080180C
:10159000D2184A800022E41A934204D0019EB65C1D
:1015A00086540132F8E7019AD31801934B883F2BF8
:1015B00006D9402304200B80FFF7EAFA00232B60B2
:1015C0000522084B1A70A9E702983C7005B0F0BDDF
:1015D000C5050020C805002009750000BF050020D2
:1015E000CC050020C405002007B56B46D871073331
:1015F00001211800FFF788FF0EBDFFFF012370B522
:101600000E4C0F4D23702B68002B10D10D4B1B7807
:10161000002B02D1002020700FE00420FFF76AFAAF
:101620000728F7D8FFF7B8FE28600028F2D02B680B
:1016300058884023181A0023237070BDC505002068
:10164000C8050020BF050020F7B5124B1B78002B02
:101650001FD00126104F114B3C681E700193104D96
:10166000002C09D000262E706388210023800420DE
:10167000FFF78EFA3E6009E0FFF78EFE011E04D0F0
:1016800004202C70FFF784FA00E02E700023019AEA
:101690001370F7BDBF050020C8050020C505002058
:1016A000C405002070B50E4B1C78E4B2002C15D197
:1016B0000C4D2968002906D04B8804200B80FFF7C9
:1016C00067FA2C600AE0FFF767FE011E03D00420D2
:1016D000FFF75EFA02E00122034B1A7070BDC046AC
:1016E000C5050020C8050020C405002070B5234CA6
:1016F0002378002B40D101332370FFF7DBFE002855
:1017000001D0FFF710FE00F02BF9002801D000F007
:10171000DBF800F091F9002801D000F0D6F800F0D5
:10172000F7F9002801D000F0D1F800232370EFF37F
:101730000583002B20D1EFF3108272B6104D28687C
:10174000002803D00F4C2178002903D0002A13D1A0
:1017500062B611E00123237043692B60002B01D096
:10176000996101E008490B60002A00D162B60025AA
:10177000836845779847257070BDC046D505002021
:10178000E8050020EC050020E4050020EFF31080C0
:1017900072B643425841C0B27047002800D062B6CA
:1017A0007047FFFF10B5FFF7F1FF0C4A1468002CDB
:1017B00010D063691360002B02D000229A6101E00F
:1017C000074A1360FFF7E9FF002320006377A3684F
:1017D0009847E8E7FFF7E1FF10BDC046D8050020B5
:1017E000DC05002010B5FFF7DDFF10BD164930B550
:1017F0000B68002B02D18360C36009E004681A689B
:10180000944207D20025121B8360C560D8601A601D
:10181000086016E002681C689968121B02600029C3
:101820000CD00C680B00A242F4D28160C968A21AE5
:10183000C160D860C16888601A6002E08160C360DE
:1018400098600223037530BDE005002070B5174D88
:101850002C68002C19D02368002B02D0013B236098
:1018600013E0A268002A00D0D360002120692A601A
:10187000036821751B68220098476368002BE7D036
:1018800023602000FFF7B2FFE2E7FFF77FFF0022AF
:10189000074B1C681A60FFF780FF002C05D0A56875
:1018A0002000FFF7A3FF2C00F7E770BDE005002044
:1018B000F005002010B5034A136801331360FFF7E9
:1018C000C5FF10BDA8040020704770477047FFFF98
:1018D0001B4B1C4A19781C4B082901D1002102E03E
:1018E0000A2903D12E311160132206E00C2901D1FF
:1018F000283100E03C21116012221A60134B1A7843
:10190000134B002A01D0002200E001221A60114B83
:101910001A78114B012A01D880220CE0042A01D840
:10192000842208E0082A01D8852204E0102A01D880
:10193000862200E087221A600122084B1A70704745
:101940004402002008B003400CB00340F50500201D
:1019500020B003404502002024B00340F4050020DD
:10196000054B1878054BC0B21A78D3B2984200D212
:101970004030C01A7047C04679060020F7050020A5
:1019800030B5234A13799B0611D5224BD4791878A8
:1019900019000130E4B200233F2800DC03001E4898
:1019A0000078834203D01D48C454DBB20B70D17859
:1019B0001748C9B24BB2002B17DA03795BB2002B80
:1019C00013DA174B174C1D782378DBB29D4202D1F6
:1019D0006C23C37009E001333F2B00D90023124868
:1019E000C05CDBB2C0B2D0712370402319420ED06C
:1019F000117919420BD000210C4B19700C4B1B684C
:101A00008B4202D00B49097819722C23D37030BD58
:101A100000A0064079060020F705002038060020C7
:101A2000800600207A060020F8050020F605002038
:101A30007C06002078060020054B1878054BC0B2C4
:101A40001A78D3B2984200D24030C01A7047C046CC
:101A5000EC0600208206002030B5234A13799B064D
:101A600011D5224BD479187819000130E4B2002343
:101A70003F2800DC03001E480078834203D01D4845
:101A8000C454DBB20B70D1781748C9B24BB2002BEB
:101A900017DA03795BB2002B13DA174B174C1D785A
:101AA0002378DBB29D4202D16C23C37009E001337D
:101AB000272B00D900231248C05CDBB2C0B2D07122
:101AC0002370402319420ED0117919420BD0002106
:101AD0000C4B19700C4B1B688B4202D00B490978D8
:101AE00019722C23D37030BD00B00640EC060020E4
:101AF00082060020AB060020F4060020ED06002040
:101B00008306002081060020F0060020EB0600205E
:101B1000054B1878054BC0B21A78D3B2984200D260
:101B20004030C01A7047C04668070020FD060020FC
:101B300030B52C4A13799B0623D52B4BD4791878D2
:101B400019000130E4B200233F2800DC03002748DD
:101B50000078834203D02648C454D8B2087025497F
:101B6000086800280DD024490978C9B28B4201D3F6
:101B70005B1A01E05B1A4033272B02DD1F4B1B78F9
:101B80000371D1781748C9B24BB2002B17DA037929
:101B90005BB2002B13DA1A4B174C1D782378DBB29B
:101BA0009D4202D16C23C37009E00133272B00D979
:101BB00000231448C05CDBB2C0B2D0712370402354
:101BC00019420ED0117919420BD000210E4B197019
:101BD0000E4B1B688B4202D00D49097819722C23D9
:101BE000D37030BD00C0064068070020FD0600200D
:101BF00027070020F806002069070020260700209C
:101C000070070020FE060020FC0600206C07002064
:101C10006707002030B585B072B670224121154BA0
:101C20001A70154A1170154A3239117080221A70D3
:101C30001A7852B2002AFBDA114B186862B6114BBF
:101C4000984201D80A23584301AC0A222100FEF72A
:101C500015FE00230C48E15C0500002905D05A0060
:101C60008218013351800A2BF5D101335B002B70B0
:101C700005B030BD000002400700024006000240EF
:101C8000080002407F9698007204002002B471465A
:101C900049084900095C49008E4402BC7047C046AF
:101CA00003B47146490840004900095A49008E446E
:101CB00003BC7047002243088B4274D303098B4254
:101CC0005FD3030A8B4244D3030B8B4228D3030C0C
:101CD0008B420DD3FF22090212BA030C8B4202D3AE
:101CE0001212090265D0030B8B4219D300E0090AD6
:101CF000C30B8B4201D3CB03C01A5241830B8B42DF
:101D000001D38B03C01A5241430B8B4201D34B03C7
:101D1000C01A5241030B8B4201D30B03C01A52412C
:101D2000C30A8B4201D3CB02C01A5241830A8B42B1
:101D300001D38B02C01A5241430A8B4201D34B029A
:101D4000C01A5241030A8B4201D30B02C01A5241FE
:101D5000CDD2C3098B4201D3CB01C01A52418309B2
:101D60008B4201D38B01C01A524143098B4201D3EC
:101D70004B01C01A524103098B4201D30B01C01A17
:101D80005241C3088B4201D3CB00C01A5241830891
:101D90008B4201D38B00C01A524143088B4201D3BE
:101DA0004B00C01A5241411A00D20146524110461E
:101DB0007047FFE701B5002000F006F802BDC046FD
:101DC0000029F7D076E770477047C0461C210123F1
:101DD0001B04984201D3000C10391B0A984201D30E
:101DE000000A08391B09984201D30009043902A2EC
:101DF000105C40187047C046040302020101010153
:101E000000000000000000000E4B70B500251E0011
:101E10000D4CE41AA410A54204D0AB00F358984727
:101E20000135F8E700F048F9084B00251E00084C82
:101E3000E41AA410A54204D0AB00F358984701352A
:101E4000F8E770BDC4200000C4200000C4200000DA
:101E5000C8200000002310B59A4203D0CC5CC454C3
:101E60000133F9E710BD0023C25C0133002AFBD126
:101E7000581E7047696E697469616C697A696E672A
:101E800000736574757020646F6E65000D0AFFFF46
:101E9000420000F840A0044001000000420000F8A9
:101EA00044A0044002000000C00000F800C004404C
:101EB00001000000000000F804900440020000004F
:101EC000000000F80890044004000000C00000F882
:101ED0001CC0044080000000C00000F810C0044096
:101EE00010000000C00000F808C00440040000001A
:101EF000C00000F80CC0044008000000800000F89A
:101F00000CB0044008000000800000F810B004404D
:101F100010000000800000F818B0044040000000ED
:101F2000800000F81CB0044080000000800000F831
:101F300014B0044020000000C00000F804C00440B9
:101F400002000000800000F800B004400100000022
:101F5000400000F800A0044001000000400000F82C
:101F600004A0044002000000400000F80CA004405F
:101F700008000000400000F808A004400400000031
:101F8000C00000F814C0044020000000C00000F8A9
:101F900018C0044040000000800000F804B0044075
:101FA00002000000800000F808B0044004000000B7
:101FB000020100F850D0044010000000020100F8B7
:101FC00054D0044020000000030100F878D0044001
:101FD0004000000000000000000000001D13000091
:101FE000111300000913000001130000F912000092
:101FF000F1120000E9120000E11200001515191598
:10200000151515FF000100009A02002012000000C3
:1020100000020000C4020020AF0000000022020005
:10202000730300203F00000000210200180300207D
:1020300009000000002203004602002054000000B6
:1020400000210300310300200900000000220400E9
:10205000B203002055000000002104004A030020C4
:1020600009000000002205000704002028000000ED
:1020700000210500630300200900000000030000A8
:102080006E0400200000000001030904AC020020DF
:1020900000000000020309043004002000000000DA
:1020A0000303090472040020000000000000000087
:1020B0000000000000000000F8B5C046F8BC08BCF5
:0820C0009E4670473904000040
:0420C800F8B5C04661
:1020CC00DC1F000000000000E8030000000000001E
:1020DC00FFFFFFFF0A0405010902A10185010509A3
:1020EC0019012908150025019508750181020501C2
:1020FC000930093109381581257F7508950381064A
:10210C00050C0A38021581257F750895018106C0DA
:10211C0005010902A10185020501093009311500EB
:10212C0026FF7F751095028102C012011001EF028B
:10213C000140C01687047302010203011803540006
:10214C00650065006E00730079006400750069001D
:10215C006E006F000902AF00060100C032080B00D0
:10216C00020202010409040000010202010005241C
:10217C0000100105240101010424020605240600B7
:10218C00010705820310004009040100020A000047
:10219C000007050302400000070584024000000907
:1021AC000402000103010100092111010001223F79
:1021BC000007058103080001090403000103000066
:1021CC0000092111010001225400070585030800B4
:1021DC00020904040001030000000921110100019F
:1021EC00225500070586030C0001090405000103B4
:1021FC0000000009211101000122280007058703B6
:10220C0008000405010906A10175019508050719C7
:10221C00E029E715002501810295017508810395D8
:10222C0005750105081901290591029501750391A0
:10223C0003950675081500257F05071900297F8170
:10224C0000C005010904A1011500250175019520A7
:10225C000509190129208102150025073500463B87
:10226C0001750495016514050109398142050109BF
:10227C0001A100150026FF03750A950409300931E8
:10228C00093209358102C0150026FF03750A950233
:10229C00093609368102C0050C0901A101750A95A0
:1022AC000419002A9C021500269C02810005017568
:1022BC00089503190029B7150026B7008100C00046
:1022CC003E03530065007200690061006C002F0032
:1022DC004B006500790062006F00610072006400C1
:1022EC002F004D006F007500730065002F004A0031
:1022FC006F00790073007400690063006B000403C5
:10230C0009040C03000000000000000000000000A5
:08231C000000000000000000B9
:00000001FF
